{
  "contractName": "Authorx",
  "abi": [
    {
      "inputs": [],
      "payable": false,
      "stateMutability": "nonpayable",
      "type": "constructor"
    },
    {
      "anonymous": false,
      "inputs": [
        {
          "indexed": false,
          "internalType": "address",
          "name": "_authorAddr",
          "type": "address"
        },
        {
          "indexed": false,
          "internalType": "string",
          "name": "_name",
          "type": "string"
        },
        {
          "indexed": false,
          "internalType": "string",
          "name": "_institution",
          "type": "string"
        }
      ],
      "name": "AuthorRegistration",
      "type": "event"
    },
    {
      "anonymous": false,
      "inputs": [
        {
          "indexed": false,
          "internalType": "address",
          "name": "_authorAddr",
          "type": "address"
        },
        {
          "indexed": false,
          "internalType": "address",
          "name": "_coAuthor",
          "type": "address"
        },
        {
          "indexed": false,
          "internalType": "uint256",
          "name": "_manuscriptID",
          "type": "uint256"
        }
      ],
      "name": "CoAuthorAdded",
      "type": "event"
    },
    {
      "anonymous": false,
      "inputs": [
        {
          "indexed": false,
          "internalType": "address",
          "name": "_authorAddr",
          "type": "address"
        },
        {
          "indexed": false,
          "internalType": "uint256",
          "name": "_domainID",
          "type": "uint256"
        },
        {
          "indexed": false,
          "internalType": "string",
          "name": "_domainName",
          "type": "string"
        }
      ],
      "name": "DomainSubscribed",
      "type": "event"
    },
    {
      "anonymous": false,
      "inputs": [
        {
          "indexed": false,
          "internalType": "address",
          "name": "_authorAddr",
          "type": "address"
        },
        {
          "indexed": false,
          "internalType": "address",
          "name": "_peerOfInterest",
          "type": "address"
        }
      ],
      "name": "JournalRegistered",
      "type": "event"
    },
    {
      "anonymous": false,
      "inputs": [
        {
          "indexed": false,
          "internalType": "address",
          "name": "_authorAddr",
          "type": "address"
        },
        {
          "indexed": false,
          "internalType": "uint256",
          "name": "_domainID",
          "type": "uint256"
        },
        {
          "indexed": false,
          "internalType": "string",
          "name": "_domainName",
          "type": "string"
        }
      ],
      "name": "NewAuthorDomain",
      "type": "event"
    },
    {
      "anonymous": false,
      "inputs": [
        {
          "indexed": false,
          "internalType": "uint256",
          "name": "_domainID",
          "type": "uint256"
        },
        {
          "indexed": false,
          "internalType": "string",
          "name": "_domain",
          "type": "string"
        }
      ],
      "name": "NewDomain",
      "type": "event"
    },
    {
      "anonymous": false,
      "inputs": [
        {
          "indexed": false,
          "internalType": "address",
          "name": "_submittingAuthor",
          "type": "address"
        },
        {
          "indexed": false,
          "internalType": "string",
          "name": "_title",
          "type": "string"
        },
        {
          "indexed": false,
          "internalType": "address",
          "name": "_primaryAuthorAddr",
          "type": "address"
        },
        {
          "indexed": false,
          "internalType": "uint256",
          "name": "_manuscriptID",
          "type": "uint256"
        },
        {
          "indexed": false,
          "internalType": "address",
          "name": "_peerOfInterest",
          "type": "address"
        }
      ],
      "name": "PaperSubmission",
      "type": "event"
    },
    {
      "anonymous": false,
      "inputs": [
        {
          "indexed": false,
          "internalType": "address",
          "name": "_authorAddr",
          "type": "address"
        },
        {
          "indexed": false,
          "internalType": "address",
          "name": "_primaryAuthorAddr",
          "type": "address"
        },
        {
          "indexed": false,
          "internalType": "uint256",
          "name": "_manuscriptID",
          "type": "uint256"
        }
      ],
      "name": "PrimaryAuthorAdded",
      "type": "event"
    },
    {
      "constant": false,
      "inputs": [
        {
          "internalType": "address",
          "name": "_authorAddr",
          "type": "address"
        },
        {
          "internalType": "string",
          "name": "_name",
          "type": "string"
        },
        {
          "internalType": "string",
          "name": "_institution",
          "type": "string"
        }
      ],
      "name": "registerAuthorInit",
      "outputs": [],
      "payable": false,
      "stateMutability": "nonpayable",
      "type": "function"
    },
    {
      "constant": true,
      "inputs": [
        {
          "internalType": "address",
          "name": "_authorAddr",
          "type": "address"
        }
      ],
      "name": "getAuthorName",
      "outputs": [
        {
          "internalType": "string",
          "name": "",
          "type": "string"
        }
      ],
      "payable": false,
      "stateMutability": "view",
      "type": "function"
    },
    {
      "constant": true,
      "inputs": [
        {
          "internalType": "address",
          "name": "_authorAddr",
          "type": "address"
        }
      ],
      "name": "getAuthorInstitution",
      "outputs": [
        {
          "internalType": "string",
          "name": "",
          "type": "string"
        }
      ],
      "payable": false,
      "stateMutability": "view",
      "type": "function"
    },
    {
      "constant": false,
      "inputs": [
        {
          "internalType": "string",
          "name": "_domainName",
          "type": "string"
        }
      ],
      "name": "addNewDomain",
      "outputs": [],
      "payable": false,
      "stateMutability": "nonpayable",
      "type": "function"
    },
    {
      "constant": true,
      "inputs": [],
      "name": "getLastDomainID",
      "outputs": [
        {
          "internalType": "uint256",
          "name": "",
          "type": "uint256"
        }
      ],
      "payable": false,
      "stateMutability": "view",
      "type": "function"
    },
    {
      "constant": false,
      "inputs": [
        {
          "internalType": "address",
          "name": "_authorAddr",
          "type": "address"
        },
        {
          "internalType": "uint256",
          "name": "_domainID",
          "type": "uint256"
        }
      ],
      "name": "addAuthorDomain",
      "outputs": [],
      "payable": false,
      "stateMutability": "nonpayable",
      "type": "function"
    },
    {
      "constant": true,
      "inputs": [
        {
          "internalType": "address",
          "name": "_authorAddr",
          "type": "address"
        }
      ],
      "name": "getAuthorDomain",
      "outputs": [
        {
          "internalType": "string[]",
          "name": "",
          "type": "string[]"
        }
      ],
      "payable": false,
      "stateMutability": "view",
      "type": "function"
    },
    {
      "constant": false,
      "inputs": [
        {
          "internalType": "address",
          "name": "_authorAddr",
          "type": "address"
        },
        {
          "internalType": "uint256",
          "name": "_domainID",
          "type": "uint256"
        }
      ],
      "name": "subscribeDomain",
      "outputs": [],
      "payable": false,
      "stateMutability": "nonpayable",
      "type": "function"
    },
    {
      "constant": true,
      "inputs": [
        {
          "internalType": "address",
          "name": "_authorAddr",
          "type": "address"
        }
      ],
      "name": "getSubscribedDomain",
      "outputs": [
        {
          "internalType": "string[]",
          "name": "",
          "type": "string[]"
        }
      ],
      "payable": false,
      "stateMutability": "view",
      "type": "function"
    },
    {
      "constant": false,
      "inputs": [
        {
          "internalType": "address",
          "name": "_authorAddr",
          "type": "address"
        },
        {
          "internalType": "address",
          "name": "_primaryAuthorAddr",
          "type": "address"
        },
        {
          "internalType": "uint256",
          "name": "_manuscriptID",
          "type": "uint256"
        },
        {
          "internalType": "string",
          "name": "_title",
          "type": "string"
        },
        {
          "internalType": "address",
          "name": "_peerOfInterest",
          "type": "address"
        }
      ],
      "name": "addManuscriptMetadata",
      "outputs": [],
      "payable": false,
      "stateMutability": "nonpayable",
      "type": "function"
    },
    {
      "constant": true,
      "inputs": [
        {
          "internalType": "address",
          "name": "_authorAddr",
          "type": "address"
        },
        {
          "internalType": "uint256",
          "name": "_manuscriptID",
          "type": "uint256"
        }
      ],
      "name": "getManuscriptSubmittingAuthor",
      "outputs": [
        {
          "internalType": "address",
          "name": "",
          "type": "address"
        }
      ],
      "payable": false,
      "stateMutability": "view",
      "type": "function"
    },
    {
      "constant": true,
      "inputs": [
        {
          "internalType": "address",
          "name": "_authorAddr",
          "type": "address"
        },
        {
          "internalType": "uint256",
          "name": "_manuscriptID",
          "type": "uint256"
        }
      ],
      "name": "getManuscriptTitle",
      "outputs": [
        {
          "internalType": "string",
          "name": "",
          "type": "string"
        }
      ],
      "payable": false,
      "stateMutability": "view",
      "type": "function"
    },
    {
      "constant": true,
      "inputs": [
        {
          "internalType": "address",
          "name": "_authorAddr",
          "type": "address"
        },
        {
          "internalType": "uint256",
          "name": "_manuscriptID",
          "type": "uint256"
        }
      ],
      "name": "getManuscriptPrimaryAuthor",
      "outputs": [
        {
          "internalType": "address",
          "name": "",
          "type": "address"
        }
      ],
      "payable": false,
      "stateMutability": "view",
      "type": "function"
    },
    {
      "constant": true,
      "inputs": [
        {
          "internalType": "address",
          "name": "_authorAddr",
          "type": "address"
        },
        {
          "internalType": "uint256",
          "name": "_manuscriptID",
          "type": "uint256"
        }
      ],
      "name": "getManuscriptID",
      "outputs": [
        {
          "internalType": "uint256",
          "name": "",
          "type": "uint256"
        }
      ],
      "payable": false,
      "stateMutability": "view",
      "type": "function"
    },
    {
      "constant": true,
      "inputs": [
        {
          "internalType": "address",
          "name": "_authorAddr",
          "type": "address"
        },
        {
          "internalType": "uint256",
          "name": "_manuscriptID",
          "type": "uint256"
        }
      ],
      "name": "getManuscriptPeerOfInterest",
      "outputs": [
        {
          "internalType": "address",
          "name": "",
          "type": "address"
        }
      ],
      "payable": false,
      "stateMutability": "view",
      "type": "function"
    },
    {
      "constant": false,
      "inputs": [
        {
          "internalType": "address",
          "name": "_authorAddr",
          "type": "address"
        },
        {
          "internalType": "address",
          "name": "_coAuthor",
          "type": "address"
        },
        {
          "internalType": "uint256",
          "name": "_manuscriptID",
          "type": "uint256"
        }
      ],
      "name": "addCoAuthor",
      "outputs": [],
      "payable": false,
      "stateMutability": "nonpayable",
      "type": "function"
    },
    {
      "constant": true,
      "inputs": [
        {
          "internalType": "address",
          "name": "_authorAddr",
          "type": "address"
        },
        {
          "internalType": "uint256",
          "name": "_manuscriptID",
          "type": "uint256"
        }
      ],
      "name": "getCoAuthor",
      "outputs": [
        {
          "internalType": "address[]",
          "name": "",
          "type": "address[]"
        }
      ],
      "payable": false,
      "stateMutability": "view",
      "type": "function"
    },
    {
      "constant": false,
      "inputs": [
        {
          "internalType": "address",
          "name": "_authorAddr",
          "type": "address"
        },
        {
          "internalType": "uint256",
          "name": "_manuscriptID",
          "type": "uint256"
        },
        {
          "internalType": "string",
          "name": "_manuscriptStatus",
          "type": "string"
        }
      ],
      "name": "setManuscriptStatus",
      "outputs": [],
      "payable": false,
      "stateMutability": "nonpayable",
      "type": "function"
    },
    {
      "constant": true,
      "inputs": [
        {
          "internalType": "address",
          "name": "_authorAddr",
          "type": "address"
        },
        {
          "internalType": "uint256",
          "name": "_manuscriptID",
          "type": "uint256"
        }
      ],
      "name": "getManuscriptStatus",
      "outputs": [
        {
          "internalType": "string",
          "name": "",
          "type": "string"
        }
      ],
      "payable": false,
      "stateMutability": "view",
      "type": "function"
    },
    {
      "constant": false,
      "inputs": [
        {
          "internalType": "address",
          "name": "_authorAddr",
          "type": "address"
        },
        {
          "internalType": "address",
          "name": "_peerOfInterest",
          "type": "address"
        }
      ],
      "name": "registerJournal",
      "outputs": [],
      "payable": false,
      "stateMutability": "nonpayable",
      "type": "function"
    }
  ],
  "bytecode": "0x6080604052600060015534801561001557600080fd5b50600060018190555061200f8061002d6000396000f3fe608060405234801561001057600080fd5b506004361061012b5760003560e01c80639bae1aef116100ad578063e70ef8b311610071578063e70ef8b314610362578063f3ca5f6214610392578063f67032d7146103c2578063fe16cab3146103f2578063ff53fb521461040e5761012b565b80639bae1aef146102ae5780639e7491a3146102de578063cee1fcd1146102fa578063e0dc987614610316578063e52a1350146103325761012b565b80636ed9a69e116100f45780636ed9a69e146101e4578063707ab45a146102005780638211e8f51461021e5780638aaccf4f1461024e5780638b0d047f1461027e5761012b565b8062321561146101305780633a14a2a11461014c5780633d3b8f78146101685780635df0306d1461019857806364960932146101b4575b600080fd5b61014a60048036036101459190810190611980565b61043e565b005b61016660048036036101619190810190611919565b6104b0565b005b610182600480360361017d91908101906118dd565b610520565b60405161018f9190611d46565b60405180910390f35b6101b260048036036101ad91908101906118dd565b610605565b005b6101ce60048036036101c9919081019061171b565b6106f1565b6040516101db9190611d8a565b60405180910390f35b6101fe60048036036101f99190810190611744565b6107d5565b005b6102086108b8565b6040516102159190611dac565b60405180910390f35b610238600480360361023391908101906118dd565b6108c2565b6040516102459190611dac565b60405180910390f35b610268600480360361026391908101906118dd565b610923565b6040516102759190611d8a565b60405180910390f35b610298600480360361029391908101906118dd565b610a1c565b6040516102a59190611bee565b60405180910390f35b6102c860048036036102c391908101906118dd565b610a9d565b6040516102d59190611bee565b60405180910390f35b6102f860048036036102f391908101906118dd565b610b1e565b005b610314600480360361030f91908101906117cf565b610c0a565b005b610330600480360361032b9190810190611780565b610ed5565b005b61034c600480360361034791908101906118dd565b610fcf565b6040516103599190611d8a565b60405180910390f35b61037c6004803603610377919081019061171b565b6110c8565b6040516103899190611d68565b60405180910390f35b6103ac60048036036103a7919081019061171b565b6111f3565b6040516103b99190611d68565b60405180910390f35b6103dc60048036036103d791908101906118dd565b61131e565b6040516103e99190611bee565b60405180910390f35b61040c6004803603610407919081019061185e565b61139f565b005b6104286004803603610423919081019061171b565b61148d565b6040516104359190611d8a565b60405180910390f35b8060008060015481526020019081526020016000209080519060200190610466929190611571565b5060018054016001819055507f9ac1972810adccc1391c4f18e1204e49503d17c7e678c3fc9ef6e853f25057ef600154826040516104a5929190611dc7565b60405180910390a150565b80600260008573ffffffffffffffffffffffffffffffffffffffff1673ffffffffffffffffffffffffffffffffffffffff1681526020019081526020016000206006016000848152602001908152602001600020600601908051906020019061051a929190611571565b50505050565b6060600260008473ffffffffffffffffffffffffffffffffffffffff1673ffffffffffffffffffffffffffffffffffffffff16815260200190815260200160002060060160008381526020019081526020016000206004018054806020026020016040519081016040528092919081815260200182805480156105f857602002820191906000526020600020905b8160009054906101000a900473ffffffffffffffffffffffffffffffffffffffff1673ffffffffffffffffffffffffffffffffffffffff16815260200190600101908083116105ae575b5050505050905092915050565b600260008373ffffffffffffffffffffffffffffffffffffffff1673ffffffffffffffffffffffffffffffffffffffff168152602001908152602001600020600201600080838152602001908152602001600020908060018154018082558091505090600182039060005260206000200160009091929091909150908054600181600116156101000203166002900461069f9291906115f1565b50507fb7af3c4a4d05d033fe9ba42400e0a8a98033f2ac078c9ef15062658d9abe77c582826000808581526020019081526020016000206040516106e593929190611d08565b60405180910390a15050565b6060600260008373ffffffffffffffffffffffffffffffffffffffff1673ffffffffffffffffffffffffffffffffffffffff1681526020019081526020016000206000018054600181600116156101000203166002900480601f0160208091040260200160405190810160405280929190818152602001828054600181600116156101000203166002900480156107c95780601f1061079e576101008083540402835291602001916107c9565b820191906000526020600020905b8154815290600101906020018083116107ac57829003601f168201915b50505050509050919050565b600260008373ffffffffffffffffffffffffffffffffffffffff1673ffffffffffffffffffffffffffffffffffffffff1681526020019081526020016000206005018190806001815401808255809150509060018203906000526020600020016000909192909190916101000a81548173ffffffffffffffffffffffffffffffffffffffff021916908373ffffffffffffffffffffffffffffffffffffffff160217905550507f7e3dabd278ef3140c2693dc5a5e7283c51a244a7fb12bae393866658b934c5b882826040516108ac929190611c09565b60405180910390a15050565b6000600154905090565b6000600260008473ffffffffffffffffffffffffffffffffffffffff1673ffffffffffffffffffffffffffffffffffffffff168152602001908152602001600020600601600083815260200190815260200160002060030154905092915050565b6060600260008473ffffffffffffffffffffffffffffffffffffffff1673ffffffffffffffffffffffffffffffffffffffff16815260200190815260200160002060060160008381526020019081526020016000206001018054600181600116156101000203166002900480601f016020809104026020016040519081016040528092919081815260200182805460018160011615610100020316600290048015610a0f5780601f106109e457610100808354040283529160200191610a0f565b820191906000526020600020905b8154815290600101906020018083116109f257829003601f168201915b5050505050905092915050565b6000600260008473ffffffffffffffffffffffffffffffffffffffff1673ffffffffffffffffffffffffffffffffffffffff168152602001908152602001600020600601600083815260200190815260200160002060020160009054906101000a900473ffffffffffffffffffffffffffffffffffffffff16905092915050565b6000600260008473ffffffffffffffffffffffffffffffffffffffff1673ffffffffffffffffffffffffffffffffffffffff168152602001908152602001600020600601600083815260200190815260200160002060000160009054906101000a900473ffffffffffffffffffffffffffffffffffffffff16905092915050565b600260008373ffffffffffffffffffffffffffffffffffffffff1673ffffffffffffffffffffffffffffffffffffffff1681526020019081526020016000206003016000808381526020019081526020016000209080600181540180825580915050906001820390600052602060002001600090919290919091509080546001816001161561010002031660029004610bb89291906115f1565b50507f4961bc75332e6a19ffbc85b7cf9d6406d336c13b62eea4bd85ad90460ab3b4b58282600080858152602001908152602001600020604051610bfe93929190611d08565b60405180910390a15050565b84600260008773ffffffffffffffffffffffffffffffffffffffff1673ffffffffffffffffffffffffffffffffffffffff168152602001908152602001600020600601600085815260200190815260200160002060000160006101000a81548173ffffffffffffffffffffffffffffffffffffffff021916908373ffffffffffffffffffffffffffffffffffffffff16021790555081600260008773ffffffffffffffffffffffffffffffffffffffff1673ffffffffffffffffffffffffffffffffffffffff16815260200190815260200160002060060160008581526020019081526020016000206001019080519060200190610d09929190611571565b5080600260008773ffffffffffffffffffffffffffffffffffffffff1673ffffffffffffffffffffffffffffffffffffffff168152602001908152602001600020600601600085815260200190815260200160002060050160006101000a81548173ffffffffffffffffffffffffffffffffffffffff021916908373ffffffffffffffffffffffffffffffffffffffff16021790555082600260008773ffffffffffffffffffffffffffffffffffffffff1673ffffffffffffffffffffffffffffffffffffffff16815260200190815260200160002060060160008581526020019081526020016000206003018190555083600260008773ffffffffffffffffffffffffffffffffffffffff1673ffffffffffffffffffffffffffffffffffffffff168152602001908152602001600020600601600085815260200190815260200160002060020160006101000a81548173ffffffffffffffffffffffffffffffffffffffff021916908373ffffffffffffffffffffffffffffffffffffffff1602179055507f2ceb03251479d8b30351e17aab303a4622c628ad1beecf62d4feb642a59e3c008583868685604051610ec6959493929190611c69565b60405180910390a15050505050565b600260008473ffffffffffffffffffffffffffffffffffffffff1673ffffffffffffffffffffffffffffffffffffffff16815260200190815260200160002060060160008281526020019081526020016000206004018290806001815401808255809150509060018203906000526020600020016000909192909190916101000a81548173ffffffffffffffffffffffffffffffffffffffff021916908373ffffffffffffffffffffffffffffffffffffffff160217905550507f779ab977c19a3f32076ea92d4a8003bc5eb37524913606daaf167d5eafce40ee838383604051610fc293929190611c32565b60405180910390a1505050565b6060600260008473ffffffffffffffffffffffffffffffffffffffff1673ffffffffffffffffffffffffffffffffffffffff16815260200190815260200160002060060160008381526020019081526020016000206006018054600181600116156101000203166002900480601f0160208091040260200160405190810160405280929190818152602001828054600181600116156101000203166002900480156110bb5780601f10611090576101008083540402835291602001916110bb565b820191906000526020600020905b81548152906001019060200180831161109e57829003601f168201915b5050505050905092915050565b6060600260008373ffffffffffffffffffffffffffffffffffffffff1673ffffffffffffffffffffffffffffffffffffffff168152602001908152602001600020600201805480602002602001604051908101604052809291908181526020016000905b828210156111e8578382906000526020600020018054600181600116156101000203166002900480601f0160208091040260200160405190810160405280929190818152602001828054600181600116156101000203166002900480156111d45780601f106111a9576101008083540402835291602001916111d4565b820191906000526020600020905b8154815290600101906020018083116111b757829003601f168201915b50505050508152602001906001019061112c565b505050509050919050565b6060600260008373ffffffffffffffffffffffffffffffffffffffff1673ffffffffffffffffffffffffffffffffffffffff168152602001908152602001600020600301805480602002602001604051908101604052809291908181526020016000905b82821015611313578382906000526020600020018054600181600116156101000203166002900480601f0160208091040260200160405190810160405280929190818152602001828054600181600116156101000203166002900480156112ff5780601f106112d4576101008083540402835291602001916112ff565b820191906000526020600020905b8154815290600101906020018083116112e257829003601f168201915b505050505081526020019060010190611257565b505050509050919050565b6000600260008473ffffffffffffffffffffffffffffffffffffffff1673ffffffffffffffffffffffffffffffffffffffff168152602001908152602001600020600601600083815260200190815260200160002060050160009054906101000a900473ffffffffffffffffffffffffffffffffffffffff16905092915050565b81600260008573ffffffffffffffffffffffffffffffffffffffff1673ffffffffffffffffffffffffffffffffffffffff16815260200190815260200160002060000190805190602001906113f5929190611571565b5080600260008573ffffffffffffffffffffffffffffffffffffffff1673ffffffffffffffffffffffffffffffffffffffff168152602001908152602001600020600101908051906020019061144c929190611571565b507fc401c35d7cebb4f898d634a455cb4d7c6349b5aba479daab49adfb5c97e434bb83838360405161148093929190611cc3565b60405180910390a1505050565b6060600260008373ffffffffffffffffffffffffffffffffffffffff1673ffffffffffffffffffffffffffffffffffffffff1681526020019081526020016000206001018054600181600116156101000203166002900480601f0160208091040260200160405190810160405280929190818152602001828054600181600116156101000203166002900480156115655780601f1061153a57610100808354040283529160200191611565565b820191906000526020600020905b81548152906001019060200180831161154857829003601f168201915b50505050509050919050565b828054600181600116156101000203166002900490600052602060002090601f016020900481019282601f106115b257805160ff19168380011785556115e0565b828001600101855582156115e0579182015b828111156115df5782518255916020019190600101906115c4565b5b5090506115ed9190611678565b5090565b828054600181600116156101000203166002900490600052602060002090601f016020900481019282601f1061162a5780548555611667565b8280016001018555821561166757600052602060002091601f016020900482015b8281111561166657825482559160010191906001019061164b565b5b5090506116749190611678565b5090565b61169a91905b8082111561169657600081600090555060010161167e565b5090565b90565b6000813590506116ac81611f9e565b92915050565b600082601f8301126116c357600080fd5b81356116d66116d182611e24565b611df7565b915080825260208301602083018583830111156116f257600080fd5b6116fd838284611f4b565b50505092915050565b60008135905061171581611fb5565b92915050565b60006020828403121561172d57600080fd5b600061173b8482850161169d565b91505092915050565b6000806040838503121561175757600080fd5b60006117658582860161169d565b92505060206117768582860161169d565b9150509250929050565b60008060006060848603121561179557600080fd5b60006117a38682870161169d565b93505060206117b48682870161169d565b92505060406117c586828701611706565b9150509250925092565b600080600080600060a086880312156117e757600080fd5b60006117f58882890161169d565b95505060206118068882890161169d565b945050604061181788828901611706565b935050606086013567ffffffffffffffff81111561183457600080fd5b611840888289016116b2565b92505060806118518882890161169d565b9150509295509295909350565b60008060006060848603121561187357600080fd5b60006118818682870161169d565b935050602084013567ffffffffffffffff81111561189e57600080fd5b6118aa868287016116b2565b925050604084013567ffffffffffffffff8111156118c757600080fd5b6118d3868287016116b2565b9150509250925092565b600080604083850312156118f057600080fd5b60006118fe8582860161169d565b925050602061190f85828601611706565b9150509250929050565b60008060006060848603121561192e57600080fd5b600061193c8682870161169d565b935050602061194d86828701611706565b925050604084013567ffffffffffffffff81111561196a57600080fd5b611976868287016116b2565b9150509250925092565b60006020828403121561199257600080fd5b600082013567ffffffffffffffff8111156119ac57600080fd5b6119b8848285016116b2565b91505092915050565b60006119cd83836119ed565b60208301905092915050565b60006119e58383611b17565b905092915050565b6119f681611f0f565b82525050565b611a0581611f0f565b82525050565b6000611a1682611e85565b611a208185611ecb565b9350611a2b83611e50565b8060005b83811015611a5c578151611a4388826119c1565b9750611a4e83611eb1565b925050600181019050611a2f565b5085935050505092915050565b6000611a7482611e90565b611a7e8185611edc565b935083602082028501611a9085611e60565b8060005b85811015611acc5784840389528151611aad85826119d9565b9450611ab883611ebe565b925060208a01995050600181019050611a94565b50829750879550505050505092915050565b6000611ae982611ea6565b611af38185611efe565b9350611b03818560208601611f5a565b611b0c81611f8d565b840191505092915050565b6000611b2282611e9b565b611b2c8185611eed565b9350611b3c818560208601611f5a565b611b4581611f8d565b840191505092915050565b600081546001811660008114611b6d5760018114611b9357611bd7565b607f6002830416611b7e8187611efe565b955060ff198316865260208601935050611bd7565b60028204611ba18187611efe565b9550611bac85611e70565b60005b82811015611bce57815481890152600182019150602081019050611baf565b80880195505050505b505092915050565b611be881611f41565b82525050565b6000602082019050611c0360008301846119fc565b92915050565b6000604082019050611c1e60008301856119fc565b611c2b60208301846119fc565b9392505050565b6000606082019050611c4760008301866119fc565b611c5460208301856119fc565b611c616040830184611bdf565b949350505050565b600060a082019050611c7e60008301886119fc565b8181036020830152611c908187611ade565b9050611c9f60408301866119fc565b611cac6060830185611bdf565b611cb960808301846119fc565b9695505050505050565b6000606082019050611cd860008301866119fc565b8181036020830152611cea8185611ade565b90508181036040830152611cfe8184611ade565b9050949350505050565b6000606082019050611d1d60008301866119fc565b611d2a6020830185611bdf565b8181036040830152611d3c8184611b50565b9050949350505050565b60006020820190508181036000830152611d608184611a0b565b905092915050565b60006020820190508181036000830152611d828184611a69565b905092915050565b60006020820190508181036000830152611da48184611ade565b905092915050565b6000602082019050611dc16000830184611bdf565b92915050565b6000604082019050611ddc6000830185611bdf565b8181036020830152611dee8184611ade565b90509392505050565b6000604051905081810181811067ffffffffffffffff82111715611e1a57600080fd5b8060405250919050565b600067ffffffffffffffff821115611e3b57600080fd5b601f19601f8301169050602081019050919050565b6000819050602082019050919050565b6000819050602082019050919050565b60008190508160005260206000209050919050565b600081519050919050565b600081519050919050565b600081519050919050565b600081519050919050565b6000602082019050919050565b6000602082019050919050565b600082825260208201905092915050565b600082825260208201905092915050565b600082825260208201905092915050565b600082825260208201905092915050565b6000611f1a82611f21565b9050919050565b600073ffffffffffffffffffffffffffffffffffffffff82169050919050565b6000819050919050565b82818337600083830152505050565b60005b83811015611f78578082015181840152602081019050611f5d565b83811115611f87576000848401525b50505050565b6000601f19601f8301169050919050565b611fa781611f0f565b8114611fb257600080fd5b50565b611fbe81611f41565b8114611fc957600080fd5b5056fea365627a7a72315820ba034dd6e928ceb1c43d41b06e428cd4d73b96ac6b18716e4778ece98ba6b6dc6c6578706572696d656e74616cf564736f6c634300050c0040",
  "source": "pragma solidity >=0.4.19 <0.6.0;\npragma experimental ABIEncoderV2;\ncontract Authorx {\n\t\n\tmapping(uint256 => string) domainOfDomain;\n\tuint256 domainID = 0;\n\n\tstruct Manuscript {\n\t\taddress submittingAuthor;\n\t\tstring title;\n\t\taddress primaryAuthor;\n\t\tuint256 manuscriptID;\n\t\taddress[] coAuthors;\n\t\taddress peerOfInterest;\n\t\tstring manuscriptStatus;\n\t}\n\t\n\n\tstruct AuthorDetail {\n\t\tstring name;\n\t\tstring institution;\n\t\tstring[] authorDomain;\n\t\tstring[] subscribedDomain;\n\t\taddress[] registeredConference;\n\t\taddress[] registeredJournals;\n\t\tmapping(uint256 => Manuscript) manuscript;\n\t}\n\n\tevent AuthorRegistration(address _authorAddr, string _name, string _institution);\n\tevent PaperSubmission(address _submittingAuthor, string _title, address _primaryAuthorAddr, uint256 _manuscriptID, address _peerOfInterest);\n\tevent NewDomain(uint256 _domainID, string _domain);\n\tevent NewAuthorDomain(address _authorAddr, uint256 _domainID, string _domainName);\n\tevent PrimaryAuthorAdded(address  _authorAddr, address  _primaryAuthorAddr, uint256 _manuscriptID);\n\tevent CoAuthorAdded(address _authorAddr, address _coAuthor, uint256 _manuscriptID);\n\tevent DomainSubscribed(address _authorAddr, uint256 _domainID, string _domainName);\n\tevent JournalRegistered(address _authorAddr, address  _peerOfInterest);\n\n\tmapping (address => AuthorDetail) authorDetail;\n\n\tconstructor() public {\n\t\tdomainID = 0;\n\t}\n\n\t\n\n\tfunction registerAuthorInit(address _authorAddr, string memory _name, string memory _institution) public {\n\t\tauthorDetail[_authorAddr].name = _name;\n\t\tauthorDetail[_authorAddr].institution = _institution;\n\t\temit AuthorRegistration(_authorAddr, _name, _institution);\n\t}\n\n\tfunction getAuthorName(address _authorAddr) public view returns(string memory) {\n\t\treturn authorDetail[_authorAddr].name;\n\t}\n\n\tfunction getAuthorInstitution(address _authorAddr) public view returns(string memory) {\n\t\treturn authorDetail[_authorAddr].institution;\n\t}\n\n\n\tfunction addNewDomain(string memory _domainName) public {\n\t\tdomainOfDomain[domainID] = _domainName;\n\t\tdomainID = domainID + 1;\n\t\temit NewDomain(domainID, _domainName);\n\t}\n\n\tfunction getLastDomainID() public view returns (uint256) {\n\t\treturn domainID;\n\t}\n\n\tfunction addAuthorDomain(address _authorAddr, uint256 _domainID) public {\n\t\tauthorDetail[_authorAddr].authorDomain.push(domainOfDomain[_domainID]);\n\t\temit NewAuthorDomain(_authorAddr,_domainID, domainOfDomain[_domainID] );\n\t}\n\n\tfunction getAuthorDomain(address _authorAddr) public view returns(string[] memory) {\n\t\treturn authorDetail[_authorAddr].authorDomain;\n\t}\n\n\tfunction subscribeDomain(address _authorAddr, uint256 _domainID) public {\n\t\tauthorDetail[_authorAddr].subscribedDomain.push(domainOfDomain[_domainID]);\n\n\t\temit DomainSubscribed(_authorAddr, _domainID, domainOfDomain[_domainID]);\n\t}\n\n\tfunction getSubscribedDomain(address _authorAddr) public view returns(string[] memory) {\n\t\treturn authorDetail[_authorAddr].subscribedDomain;\n\t}\n\n\tfunction addManuscriptMetadata(address _authorAddr, address _primaryAuthorAddr, uint256 _manuscriptID, string memory _title, address _peerOfInterest) public {\n\t\tauthorDetail[_authorAddr].manuscript[_manuscriptID].submittingAuthor = _authorAddr;\n\t\tauthorDetail[_authorAddr].manuscript[_manuscriptID].title = _title;\n\t\tauthorDetail[_authorAddr].manuscript[_manuscriptID].peerOfInterest = _peerOfInterest;\n\t\tauthorDetail[_authorAddr].manuscript[_manuscriptID].manuscriptID = _manuscriptID;\n\t\tauthorDetail[_authorAddr].manuscript[_manuscriptID].primaryAuthor = _primaryAuthorAddr;\n\n\t\temit PaperSubmission(_authorAddr, _title, _primaryAuthorAddr, _manuscriptID, _peerOfInterest);\n\t}\n\n/*\tfunction getManuscriptMetadata(address _authorAddr, uint256 _manuscriptID) public view returns(address, string memory, string memory, uint256, address) {\n\t\treturn (authorDetail[_authorAddr].manuscript[_manuscriptID].submittingAuthor,\n\t\t\t    authorDetail[_authorAddr].manuscript[_manuscriptID].title,  \n\t\t\t\tauthorDetail[_authorAddr].manuscript[_manuscriptID].primaryAuthor,\n\t\t\t\tauthorDetail[_authorAddr].manuscript[_manuscriptID].manuscriptID,\n\t\t\t\tauthorDetail[_authorAddr].manuscript[_manuscriptID].peerOfInterest);\n\t}\t\t\t\n*/\n\tfunction getManuscriptSubmittingAuthor(address _authorAddr, uint256 _manuscriptID) public view returns(address) {\n\t\treturn (authorDetail[_authorAddr].manuscript[_manuscriptID].submittingAuthor);\n\t}\n\n\tfunction getManuscriptTitle(address _authorAddr, uint256 _manuscriptID) public view returns(string memory) {\n\t\treturn (authorDetail[_authorAddr].manuscript[_manuscriptID].title);\n\t}\n\n\tfunction getManuscriptPrimaryAuthor(address _authorAddr, uint256 _manuscriptID) public view returns(address){\n\t\treturn (authorDetail[_authorAddr].manuscript[_manuscriptID].primaryAuthor);\t\t\n\t}\n\n\tfunction getManuscriptID(address _authorAddr, uint256 _manuscriptID) public view returns(uint256) {\n\t\treturn (authorDetail[_authorAddr].manuscript[_manuscriptID].manuscriptID);\n\t}\n\n\tfunction getManuscriptPeerOfInterest(address _authorAddr, uint256 _manuscriptID) public view returns(address) {\n\t\treturn (authorDetail[_authorAddr].manuscript[_manuscriptID].peerOfInterest);\n\t} \n\n\tfunction addCoAuthor(address _authorAddr, address _coAuthor, uint256 _manuscriptID) public {\n\t\tauthorDetail[_authorAddr].manuscript[_manuscriptID].coAuthors.push(_coAuthor);\t\n\t\temit CoAuthorAdded(_authorAddr, _coAuthor, _manuscriptID);\n\t}\n\n\tfunction getCoAuthor(address _authorAddr, uint256 _manuscriptID) public view returns(address[] memory) {\n\t\treturn authorDetail[_authorAddr].manuscript[_manuscriptID].coAuthors;\n\t}\n\n\tfunction setManuscriptStatus(address _authorAddr, uint256 _manuscriptID, string memory _manuscriptStatus) public {\n\t\tauthorDetail[_authorAddr].manuscript[_manuscriptID].manuscriptStatus = _manuscriptStatus;\n\t}\n\n\tfunction getManuscriptStatus(address _authorAddr, uint256 _manuscriptID) public view returns(string memory) {\n\t\treturn (authorDetail[_authorAddr].manuscript[_manuscriptID].manuscriptStatus);\n\t}\n\n\tfunction registerJournal(address _authorAddr, address _peerOfInterest) public {\n\t\tauthorDetail[_authorAddr].registeredJournals.push(_peerOfInterest);\n\t\temit JournalRegistered(_authorAddr, _peerOfInterest);\n\t}\n\n}",
  "sourcePath": "/root/Soft/contracts/Authorx.sol",
  "compiler": {
    "name": "solc",
    "version": "0.5.12+commit.7709ece9.Emscripten.clang"
  },
  "schemaVersion": "3.0.20",
  "updatedAt": "2020-01-12T20:32:08.373Z",
  "networkType": "ethereum",
  "devdoc": {
    "methods": {}
  },
  "userdoc": {
    "methods": {}
  }
}