{
  "contractName": "Journal",
  "abi": [
    {
      "inputs": [
        {
          "internalType": "contract Authorx",
          "name": "_authorx",
          "type": "address"
        }
      ],
      "payable": false,
      "stateMutability": "nonpayable",
      "type": "constructor"
    },
    {
      "anonymous": false,
      "inputs": [
        {
          "indexed": false,
          "internalType": "address",
          "name": "_journalAddress",
          "type": "address"
        },
        {
          "indexed": false,
          "internalType": "string",
          "name": "_name",
          "type": "string"
        },
        {
          "indexed": false,
          "internalType": "string",
          "name": "_institution",
          "type": "string"
        },
        {
          "indexed": false,
          "internalType": "string",
          "name": "_manuscriptID",
          "type": "string"
        },
        {
          "indexed": false,
          "internalType": "string",
          "name": "_title",
          "type": "string"
        },
        {
          "indexed": false,
          "internalType": "string",
          "name": "_primaryAuthor",
          "type": "string"
        },
        {
          "indexed": false,
          "internalType": "string",
          "name": "_manuscriptStatus",
          "type": "string"
        }
      ],
      "name": "JournalPaperSubmission",
      "type": "event"
    },
    {
      "anonymous": false,
      "inputs": [
        {
          "indexed": false,
          "internalType": "address",
          "name": "_journalAddress",
          "type": "address"
        },
        {
          "indexed": false,
          "internalType": "string",
          "name": "_publisher",
          "type": "string"
        },
        {
          "indexed": false,
          "internalType": "string",
          "name": "_name",
          "type": "string"
        },
        {
          "indexed": false,
          "internalType": "string",
          "name": "_domain",
          "type": "string"
        },
        {
          "indexed": false,
          "internalType": "string",
          "name": "_IF",
          "type": "string"
        },
        {
          "indexed": false,
          "internalType": "string",
          "name": "_fiveYearIF",
          "type": "string"
        },
        {
          "indexed": false,
          "internalType": "string",
          "name": "scopus",
          "type": "string"
        },
        {
          "indexed": false,
          "internalType": "string",
          "name": "_averageReviewSpeed",
          "type": "string"
        }
      ],
      "name": "JournalRegistration",
      "type": "event"
    },
    {
      "constant": false,
      "inputs": [
        {
          "internalType": "address",
          "name": "_journalAddress",
          "type": "address"
        },
        {
          "internalType": "string",
          "name": "_publisher",
          "type": "string"
        },
        {
          "internalType": "string",
          "name": "_name",
          "type": "string"
        },
        {
          "internalType": "string",
          "name": "_domain",
          "type": "string"
        },
        {
          "internalType": "string",
          "name": "_IF",
          "type": "string"
        },
        {
          "internalType": "string",
          "name": "_fiveYearIF",
          "type": "string"
        },
        {
          "internalType": "string",
          "name": "_scopus",
          "type": "string"
        },
        {
          "internalType": "string",
          "name": "_averageReviewSpeed",
          "type": "string"
        }
      ],
      "name": "registerJournal",
      "outputs": [],
      "payable": false,
      "stateMutability": "nonpayable",
      "type": "function"
    },
    {
      "constant": true,
      "inputs": [
        {
          "internalType": "address",
          "name": "_journalAddress",
          "type": "address"
        }
      ],
      "name": "getRegisteredJournal",
      "outputs": [
        {
          "internalType": "address",
          "name": "",
          "type": "address"
        },
        {
          "internalType": "string",
          "name": "",
          "type": "string"
        },
        {
          "internalType": "string",
          "name": "",
          "type": "string"
        },
        {
          "internalType": "string",
          "name": "",
          "type": "string"
        },
        {
          "internalType": "string",
          "name": "",
          "type": "string"
        },
        {
          "internalType": "string",
          "name": "",
          "type": "string"
        }
      ],
      "payable": false,
      "stateMutability": "view",
      "type": "function"
    },
    {
      "constant": false,
      "inputs": [
        {
          "internalType": "address",
          "name": "_journalAddress",
          "type": "address"
        },
        {
          "internalType": "address",
          "name": "_authorAddr",
          "type": "address"
        },
        {
          "internalType": "uint256",
          "name": "_paperID",
          "type": "uint256"
        }
      ],
      "name": "addSubmittedPaper",
      "outputs": [],
      "payable": false,
      "stateMutability": "nonpayable",
      "type": "function"
    },
    {
      "constant": true,
      "inputs": [
        {
          "internalType": "address",
          "name": "_journalAddress",
          "type": "address"
        },
        {
          "internalType": "address",
          "name": "_authorAddr",
          "type": "address"
        },
        {
          "internalType": "uint256",
          "name": "_paperID",
          "type": "uint256"
        }
      ],
      "name": "getSubmittedPaper",
      "outputs": [
        {
          "internalType": "uint256",
          "name": "",
          "type": "uint256"
        }
      ],
      "payable": false,
      "stateMutability": "view",
      "type": "function"
    },
    {
      "constant": false,
      "inputs": [
        {
          "internalType": "address",
          "name": "_journalAddress",
          "type": "address"
        },
        {
          "internalType": "address",
          "name": "_authorAddr",
          "type": "address"
        },
        {
          "internalType": "uint256",
          "name": "_manuscriptID",
          "type": "uint256"
        },
        {
          "internalType": "string",
          "name": "_manuscriptStatus",
          "type": "string"
        }
      ],
      "name": "setManuscriptStatus",
      "outputs": [],
      "payable": false,
      "stateMutability": "nonpayable",
      "type": "function"
    },
    {
      "constant": true,
      "inputs": [
        {
          "internalType": "address",
          "name": "_journalAddress",
          "type": "address"
        },
        {
          "internalType": "address",
          "name": "_authorAddr",
          "type": "address"
        },
        {
          "internalType": "uint256",
          "name": "_manuscriptID",
          "type": "uint256"
        }
      ],
      "name": "getManuscriptStatus",
      "outputs": [
        {
          "internalType": "string",
          "name": "",
          "type": "string"
        }
      ],
      "payable": false,
      "stateMutability": "view",
      "type": "function"
    }
  ],
  "bytecode": "0x60806040523480156200001157600080fd5b506040516200147538038062001475833981810160405262000037919081019062000096565b80600260006101000a81548173ffffffffffffffffffffffffffffffffffffffff021916908373ffffffffffffffffffffffffffffffffffffffff1602179055505062000124565b60008151905062000090816200010a565b92915050565b600060208284031215620000a957600080fd5b6000620000b9848285016200007f565b91505092915050565b6000620000cf82620000ea565b9050919050565b6000620000e382620000c2565b9050919050565b600073ffffffffffffffffffffffffffffffffffffffff82169050919050565b6200011581620000d6565b81146200012157600080fd5b50565b61134180620001346000396000f3fe608060405234801561001057600080fd5b50600436106100625760003560e01c80633a3fd9ce14610067578063503bc0b714610083578063695df7011461009f578063adf87ab9146100cf578063c637bb84146100ff578063c642ebcd1461011b575b600080fd5b610081600480360361007c9190810190610e6d565b610150565b005b61009d60048036036100989190810190610df2565b610479565b005b6100b960048036036100b49190810190610da3565b6105ba565b6040516100c6919061118f565b60405180910390f35b6100e960048036036100e49190810190610da3565b6106f3565b6040516100f691906111b1565b60405180910390f35b61011960048036036101149190810190610da3565b610780565b005b61013560048036036101309190810190610d7a565b610785565b6040516101479695949392919061101e565b60405180910390f35b876000808a73ffffffffffffffffffffffffffffffffffffffff1673ffffffffffffffffffffffffffffffffffffffff16815260200190815260200160002060000160006101000a81548173ffffffffffffffffffffffffffffffffffffffff021916908373ffffffffffffffffffffffffffffffffffffffff160217905550866000808a73ffffffffffffffffffffffffffffffffffffffff1673ffffffffffffffffffffffffffffffffffffffff1681526020019081526020016000206001019080519060200190610225929190610c57565b50856000808a73ffffffffffffffffffffffffffffffffffffffff1673ffffffffffffffffffffffffffffffffffffffff168152602001908152602001600020600201908051906020019061027b929190610c57565b50846000808a73ffffffffffffffffffffffffffffffffffffffff1673ffffffffffffffffffffffffffffffffffffffff16815260200190815260200160002060030190805190602001906102d1929190610c57565b50836000808a73ffffffffffffffffffffffffffffffffffffffff1673ffffffffffffffffffffffffffffffffffffffff1681526020019081526020016000206004019080519060200190610327929190610c57565b50826000808a73ffffffffffffffffffffffffffffffffffffffff1673ffffffffffffffffffffffffffffffffffffffff168152602001908152602001600020600501908051906020019061037d929190610c57565b50816000808a73ffffffffffffffffffffffffffffffffffffffff1673ffffffffffffffffffffffffffffffffffffffff16815260200190815260200160002060060190805190602001906103d3929190610c57565b50806000808a73ffffffffffffffffffffffffffffffffffffffff1673ffffffffffffffffffffffffffffffffffffffff1681526020019081526020016000206007019080519060200190610429929190610c57565b507ff60431bafcf37c147ee6e3ffec0e4848062c7b8f6f9d30ffc227efc7d0dd4b3f88888888888888886040516104679897969594939291906110a2565b60405180910390a15050505050505050565b806000808673ffffffffffffffffffffffffffffffffffffffff1673ffffffffffffffffffffffffffffffffffffffff16815260200190815260200160002060080160008573ffffffffffffffffffffffffffffffffffffffff1673ffffffffffffffffffffffffffffffffffffffff16815260200190815260200160002060070160008481526020019081526020016000206005019080519060200190610522929190610c57565b50600260009054906101000a900473ffffffffffffffffffffffffffffffffffffffff1673ffffffffffffffffffffffffffffffffffffffff16633a14a2a18484846040518463ffffffff1660e01b815260040161058293929190611151565b600060405180830381600087803b15801561059c57600080fd5b505af11580156105b0573d6000803e3d6000fd5b5050505050505050565b60606000808573ffffffffffffffffffffffffffffffffffffffff1673ffffffffffffffffffffffffffffffffffffffff16815260200190815260200160002060080160008473ffffffffffffffffffffffffffffffffffffffff1673ffffffffffffffffffffffffffffffffffffffff16815260200190815260200160002060070160008381526020019081526020016000206005018054600181600116156101000203166002900480601f0160208091040260200160405190810160405280929190818152602001828054600181600116156101000203166002900480156106e55780601f106106ba576101008083540402835291602001916106e5565b820191906000526020600020905b8154815290600101906020018083116106c857829003601f168201915b505050505090509392505050565b60008060008573ffffffffffffffffffffffffffffffffffffffff1673ffffffffffffffffffffffffffffffffffffffff16815260200190815260200160002060080160008473ffffffffffffffffffffffffffffffffffffffff1673ffffffffffffffffffffffffffffffffffffffff1681526020019081526020016000206006015490509392505050565b505050565b600060608060608060606000808873ffffffffffffffffffffffffffffffffffffffff1673ffffffffffffffffffffffffffffffffffffffff16815260200190815260200160002060000160009054906101000a900473ffffffffffffffffffffffffffffffffffffffff166000808973ffffffffffffffffffffffffffffffffffffffff1673ffffffffffffffffffffffffffffffffffffffff1681526020019081526020016000206001016000808a73ffffffffffffffffffffffffffffffffffffffff1673ffffffffffffffffffffffffffffffffffffffff1681526020019081526020016000206002016000808b73ffffffffffffffffffffffffffffffffffffffff1673ffffffffffffffffffffffffffffffffffffffff1681526020019081526020016000206003016000808c73ffffffffffffffffffffffffffffffffffffffff1673ffffffffffffffffffffffffffffffffffffffff1681526020019081526020016000206004016000808d73ffffffffffffffffffffffffffffffffffffffff1673ffffffffffffffffffffffffffffffffffffffff168152602001908152602001600020600501848054600181600116156101000203166002900480601f0160208091040260200160405190810160405280929190818152602001828054600181600116156101000203166002900480156109cb5780601f106109a0576101008083540402835291602001916109cb565b820191906000526020600020905b8154815290600101906020018083116109ae57829003601f168201915b50505050509450838054600181600116156101000203166002900480601f016020809104026020016040519081016040528092919081815260200182805460018160011615610100020316600290048015610a675780601f10610a3c57610100808354040283529160200191610a67565b820191906000526020600020905b815481529060010190602001808311610a4a57829003601f168201915b50505050509350828054600181600116156101000203166002900480601f016020809104026020016040519081016040528092919081815260200182805460018160011615610100020316600290048015610b035780601f10610ad857610100808354040283529160200191610b03565b820191906000526020600020905b815481529060010190602001808311610ae657829003601f168201915b50505050509250818054600181600116156101000203166002900480601f016020809104026020016040519081016040528092919081815260200182805460018160011615610100020316600290048015610b9f5780601f10610b7457610100808354040283529160200191610b9f565b820191906000526020600020905b815481529060010190602001808311610b8257829003601f168201915b50505050509150808054600181600116156101000203166002900480601f016020809104026020016040519081016040528092919081815260200182805460018160011615610100020316600290048015610c3b5780601f10610c1057610100808354040283529160200191610c3b565b820191906000526020600020905b815481529060010190602001808311610c1e57829003601f168201915b5050505050905095509550955095509550955091939550919395565b828054600181600116156101000203166002900490600052602060002090601f016020900481019282601f10610c9857805160ff1916838001178555610cc6565b82800160010185558215610cc6579182015b82811115610cc5578251825591602001919060010190610caa565b5b509050610cd39190610cd7565b5090565b610cf991905b80821115610cf5576000816000905550600101610cdd565b5090565b90565b600081359050610d0b816112d0565b92915050565b600082601f830112610d2257600080fd5b8135610d35610d30826111f9565b6111cc565b91508082526020830160208301858383011115610d5157600080fd5b610d5c83828461127d565b50505092915050565b600081359050610d74816112e7565b92915050565b600060208284031215610d8c57600080fd5b6000610d9a84828501610cfc565b91505092915050565b600080600060608486031215610db857600080fd5b6000610dc686828701610cfc565b9350506020610dd786828701610cfc565b9250506040610de886828701610d65565b9150509250925092565b60008060008060808587031215610e0857600080fd5b6000610e1687828801610cfc565b9450506020610e2787828801610cfc565b9350506040610e3887828801610d65565b925050606085013567ffffffffffffffff811115610e5557600080fd5b610e6187828801610d11565b91505092959194509250565b600080600080600080600080610100898b031215610e8a57600080fd5b6000610e988b828c01610cfc565b985050602089013567ffffffffffffffff811115610eb557600080fd5b610ec18b828c01610d11565b975050604089013567ffffffffffffffff811115610ede57600080fd5b610eea8b828c01610d11565b965050606089013567ffffffffffffffff811115610f0757600080fd5b610f138b828c01610d11565b955050608089013567ffffffffffffffff811115610f3057600080fd5b610f3c8b828c01610d11565b94505060a089013567ffffffffffffffff811115610f5957600080fd5b610f658b828c01610d11565b93505060c089013567ffffffffffffffff811115610f8257600080fd5b610f8e8b828c01610d11565b92505060e089013567ffffffffffffffff811115610fab57600080fd5b610fb78b828c01610d11565b9150509295985092959890939650565b610fd081611241565b82525050565b6000610fe182611225565b610feb8185611230565b9350610ffb81856020860161128c565b611004816112bf565b840191505092915050565b61101881611273565b82525050565b600060c0820190506110336000830189610fc7565b81810360208301526110458188610fd6565b905081810360408301526110598187610fd6565b9050818103606083015261106d8186610fd6565b905081810360808301526110818185610fd6565b905081810360a08301526110958184610fd6565b9050979650505050505050565b6000610100820190506110b8600083018b610fc7565b81810360208301526110ca818a610fd6565b905081810360408301526110de8189610fd6565b905081810360608301526110f28188610fd6565b905081810360808301526111068187610fd6565b905081810360a083015261111a8186610fd6565b905081810360c083015261112e8185610fd6565b905081810360e08301526111428184610fd6565b90509998505050505050505050565b60006060820190506111666000830186610fc7565b611173602083018561100f565b81810360408301526111858184610fd6565b9050949350505050565b600060208201905081810360008301526111a98184610fd6565b905092915050565b60006020820190506111c6600083018461100f565b92915050565b6000604051905081810181811067ffffffffffffffff821117156111ef57600080fd5b8060405250919050565b600067ffffffffffffffff82111561121057600080fd5b601f19601f8301169050602081019050919050565b600081519050919050565b600082825260208201905092915050565b600061124c82611253565b9050919050565b600073ffffffffffffffffffffffffffffffffffffffff82169050919050565b6000819050919050565b82818337600083830152505050565b60005b838110156112aa57808201518184015260208101905061128f565b838111156112b9576000848401525b50505050565b6000601f19601f8301169050919050565b6112d981611241565b81146112e457600080fd5b50565b6112f081611273565b81146112fb57600080fd5b5056fea365627a7a723158209d4d81571db87bf427476f1c6775123ce9b00bebd8b5d3d210337a86b7752bed6c6578706572696d656e74616cf564736f6c634300050c0040",
  "source": "pragma solidity >=0.4.19 <0.6.0;\npragma experimental ABIEncoderV2;\nimport \"./Authorx.sol\";\n\ncontract Journal\n{\n\tstruct JournalInfo {\n\t\taddress journal;\n\t\tstring publisher;\n\t\tstring name;\n\t\tstring domain;\n\t\tstring IF;\n\t\tstring fiveYearIF;\n\t\tstring scopus;\n\t\tstring averageReviewSpeed;\n\t\tmapping(address => AuthorDetail) authorDetail;\n\t}\n\n\tstruct Manuscript {\n\t\tstring title;\n\t\tstring submittingAuthor;\n\t\taddress primaryAuthor;\n\t\taddress[] coAuthors;\n\t\t//string status;\n\t\taddress peerOfInterest;\n\t\tstring manuscriptStatus;\n\t}\n\n\tstruct AuthorDetail {\n\t\tstring name;\n\t\tstring institution;\n\t\tstring[] authorDomain;\n\t\tstring[] subscribedDomain;\n\t\tstring[] registeredConference;\n\t\tstring[] registeredJournals;\n\t\tuint256 manuscriptID;\n\t\tmapping(uint256 => Manuscript) manuscript;\n\t}\n\n\tevent JournalRegistration(address _journalAddress, string _publisher, string _name, string _domain, string _IF, string _fiveYearIF, string scopus, string _averageReviewSpeed);\n\tevent JournalPaperSubmission(address _journalAddress, string _name, string _institution, string _manuscriptID, string _title, string _primaryAuthor, string _manuscriptStatus);\n\tmapping (address => JournalInfo) journalInfo;\n\tmapping(uint256 => Manuscript) manuscript;\n\t\n\tAuthorx authorx;\n\tconstructor(Authorx _authorx) public{\n\t\tauthorx = _authorx;\n\t}\n\n\tfunction registerJournal(address _journalAddress, string memory _publisher, string memory _name, string memory _domain, string memory _IF, string memory _fiveYearIF, string memory _scopus, string memory _averageReviewSpeed) public {\n\t\tjournalInfo[_journalAddress].journal = _journalAddress;\n\t\tjournalInfo[_journalAddress].publisher = _publisher;\n\t\tjournalInfo[_journalAddress].name = _name;\n\t\tjournalInfo[_journalAddress].domain = _domain;\n\t\tjournalInfo[_journalAddress].IF = _IF;\n\t\tjournalInfo[_journalAddress].fiveYearIF = _fiveYearIF;\n\t\tjournalInfo[_journalAddress].scopus = _scopus;\n\t\tjournalInfo[_journalAddress].averageReviewSpeed = _averageReviewSpeed;\n\n\t\temit JournalRegistration(_journalAddress, _publisher, _name, _domain, _IF, _fiveYearIF, _scopus, _averageReviewSpeed);\n\t}\n\n\tfunction getRegisteredJournal(address _journalAddress) public view returns(address, string memory, string memory, string memory, string memory, string memory) {//, string memory, string memory) {\n\t\treturn (journalInfo[_journalAddress].journal, journalInfo[_journalAddress].publisher, journalInfo[_journalAddress].name, journalInfo[_journalAddress].domain, journalInfo[_journalAddress].IF, journalInfo[_journalAddress].fiveYearIF);//, journalInfo[_journalAddress].scopus, journalInfo[_journalAddress].averageReviewSpeed);\n\t}\n\n\tfunction addSubmittedPaper(address _journalAddress, address _authorAddr, uint256 _paperID) public {\n\t\t//journalInfo[_journalAddress].authorDetail[_authorAddr].name = authorx.authorDetail[_authorAddr].name;\n\t\t//journalInfo[_journalAddress].authorDetail[_authorAddr].institution = authorx.authorDetail[_authorAddr].institution;\n\t\t//journalInfo[_journalAddress].authorDetail[_authorAddr].manuscriptID = authorx.authorDetail[_authorAddr].manuscriptID;\n\t\t//journalInfo[_journalAddress].authorDetail[_authorAddr].manuscript[_paperID].title = authorx.authorDetail[_authorAddr].manuscript[_paperID].title;\n\t\t//journalInfo[_journalAddress].authorDetail[_authorAddr].manuscript[_paperID].primaryAuthor = authorx.authorDetail[_authorAddr].manuscript[_paperID].primaryAuthor;\n\t\t//journalInfo[_journalAddress].authorDetail[_authorAddr].manuscript[_paperID].manuscriptStatus = \"WITH EDITOR\";\n\t\t//journalInfo[_journalAddress].authorDetail[_authorAddr].manuscript[_paperID].peerOfInterest = authorx.authorDetail[_authorAddr].manuscript[_paperID].peerOfInterest;\n\n\t\t//emit JournalPaperSubmission(journalInfo[_journalAddress].authorDetail[_authorAddr].manuscript[_paperID].peerOfInterest, journalInfo[_journalAddress].authorDetail[_authorAddr].name, journalInfo[_journalAddress].authorDetail[_authorAddr].institution, journalInfo[_journalAddress].authorDetail[_authorAddr].manuscriptID, journalInfo[_journalAddress].authorDetail[_authorAddr].title, journalInfo[_journalAddress].authorDetail[_authorAddr].primaryAuthor, journalInfo[_journalAddress].authorDetail[_authorAddr].manuscriptStatus);\n\t}\n\n\tfunction getSubmittedPaper(address _journalAddress, address _authorAddr, uint256 _paperID) public view returns( uint256 ) {\n\t\treturn (//journalInfo[_journalAddress].authorDetail[_authorAddr].name, \n\t\t\t//journalInfo[_journalAddress].authorDetail[_authorAddr].institution, \n\t\t\tjournalInfo[_journalAddress].authorDetail[_authorAddr].manuscriptID);\n\t\t\t//journalInfo[_journalAddress].authorDetail[_authorAddr].manuscript[_paperID].title, \n\t\t\t//journalInfo[_journalAddress].authorDetail[_authorAddr].manuscript[_paperID].primaryAuthor, \n\t\t\t//journalInfo[_journalAddress].authorDetail[_authorAddr].manuscript[_paperID].manuscriptStatus, \n\t\t\t//journalInfo[_journalAddress].authorDetail[_authorAddr].manuscript[_paperID].peerOfInterest);\n\t} \n\n\tfunction setManuscriptStatus(address _journalAddress, address _authorAddr, uint256 _manuscriptID, string memory _manuscriptStatus) public {\n\t\tjournalInfo[_journalAddress].authorDetail[_authorAddr].manuscript[_manuscriptID].manuscriptStatus = _manuscriptStatus;\n\t\tauthorx.setManuscriptStatus(_authorAddr, _manuscriptID, _manuscriptStatus);\n\t}\n\n\tfunction getManuscriptStatus(address _journalAddress, address _authorAddr, uint256 _manuscriptID) public view returns(string memory) {\n\t\treturn(journalInfo[_journalAddress].authorDetail[_authorAddr].manuscript[_manuscriptID].manuscriptStatus);\n\t} \n}",
  "sourcePath": "/root/Soft/contracts/Journal.sol",
  "compiler": {
    "name": "solc",
    "version": "0.5.12+commit.7709ece9.Emscripten.clang"
  },
  "schemaVersion": "3.0.20",
  "updatedAt": "2020-01-12T19:39:39.182Z",
  "devdoc": {
    "methods": {}
  },
  "userdoc": {
    "methods": {}
  }
}