{
  "contractName": "Journalx",
  "abi": [
    {
      "inputs": [
        {
          "internalType": "contract Authorx",
          "name": "_authorx",
          "type": "address"
        }
      ],
      "payable": false,
      "stateMutability": "nonpayable",
      "type": "constructor"
    },
    {
      "anonymous": false,
      "inputs": [
        {
          "indexed": false,
          "internalType": "address",
          "name": "_editorAddr",
          "type": "address"
        },
        {
          "indexed": false,
          "internalType": "address",
          "name": "_peer",
          "type": "address"
        }
      ],
      "name": "EditorRegistered",
      "type": "event"
    },
    {
      "anonymous": false,
      "inputs": [
        {
          "indexed": false,
          "internalType": "address",
          "name": "_journalAddress",
          "type": "address"
        },
        {
          "indexed": false,
          "internalType": "address",
          "name": "_editorAddress",
          "type": "address"
        },
        {
          "indexed": false,
          "internalType": "string",
          "name": "_mail",
          "type": "string"
        },
        {
          "indexed": false,
          "internalType": "string",
          "name": "_institution",
          "type": "string"
        },
        {
          "indexed": false,
          "internalType": "string",
          "name": "_about",
          "type": "string"
        }
      ],
      "name": "EditorRegistration",
      "type": "event"
    },
    {
      "anonymous": false,
      "inputs": [
        {
          "indexed": false,
          "internalType": "address",
          "name": "_journalAddress",
          "type": "address"
        },
        {
          "indexed": false,
          "internalType": "string",
          "name": "_name",
          "type": "string"
        },
        {
          "indexed": false,
          "internalType": "string",
          "name": "_institution",
          "type": "string"
        },
        {
          "indexed": false,
          "internalType": "uint256",
          "name": "_manuscriptID",
          "type": "uint256"
        },
        {
          "indexed": false,
          "internalType": "string",
          "name": "_title",
          "type": "string"
        },
        {
          "indexed": false,
          "internalType": "address",
          "name": "_primaryAuthor",
          "type": "address"
        },
        {
          "indexed": false,
          "internalType": "string",
          "name": "_manuscriptStatus",
          "type": "string"
        }
      ],
      "name": "JournalPaperSubmission",
      "type": "event"
    },
    {
      "anonymous": false,
      "inputs": [
        {
          "indexed": false,
          "internalType": "address",
          "name": "_journalAddress",
          "type": "address"
        },
        {
          "indexed": false,
          "internalType": "string",
          "name": "_publisher",
          "type": "string"
        },
        {
          "indexed": false,
          "internalType": "string",
          "name": "_name",
          "type": "string"
        },
        {
          "indexed": false,
          "internalType": "string",
          "name": "_domain",
          "type": "string"
        },
        {
          "indexed": false,
          "internalType": "string",
          "name": "_IF",
          "type": "string"
        },
        {
          "indexed": false,
          "internalType": "string",
          "name": "scopus",
          "type": "string"
        }
      ],
      "name": "JournalRegistration",
      "type": "event"
    },
    {
      "anonymous": false,
      "inputs": [
        {
          "indexed": false,
          "internalType": "address",
          "name": "_journalAddress",
          "type": "address"
        },
        {
          "indexed": false,
          "internalType": "address",
          "name": "_authorAddr",
          "type": "address"
        },
        {
          "indexed": false,
          "internalType": "uint256",
          "name": "_manuscriptID",
          "type": "uint256"
        },
        {
          "indexed": false,
          "internalType": "string",
          "name": "_manuscriptStatus",
          "type": "string"
        }
      ],
      "name": "ManuscriptStatusUpdate",
      "type": "event"
    },
    {
      "anonymous": false,
      "inputs": [
        {
          "indexed": false,
          "internalType": "address",
          "name": "_journalAddress",
          "type": "address"
        },
        {
          "indexed": false,
          "internalType": "address",
          "name": "_reviewerAddress",
          "type": "address"
        },
        {
          "indexed": false,
          "internalType": "string",
          "name": "_name",
          "type": "string"
        },
        {
          "indexed": false,
          "internalType": "uint256",
          "name": "_reviewQuality",
          "type": "uint256"
        },
        {
          "indexed": false,
          "internalType": "uint256",
          "name": "_theftAllegation",
          "type": "uint256"
        }
      ],
      "name": "ReviewerRegistration",
      "type": "event"
    },
    {
      "constant": false,
      "inputs": [
        {
          "internalType": "address",
          "name": "_journalAddress",
          "type": "address"
        },
        {
          "internalType": "string",
          "name": "_publisher",
          "type": "string"
        },
        {
          "internalType": "string",
          "name": "_name",
          "type": "string"
        },
        {
          "internalType": "string",
          "name": "_domain",
          "type": "string"
        },
        {
          "internalType": "string",
          "name": "_IF",
          "type": "string"
        },
        {
          "internalType": "string",
          "name": "_scopus",
          "type": "string"
        }
      ],
      "name": "registerJournal",
      "outputs": [],
      "payable": false,
      "stateMutability": "nonpayable",
      "type": "function"
    },
    {
      "constant": true,
      "inputs": [
        {
          "internalType": "address",
          "name": "_journalAddress",
          "type": "address"
        }
      ],
      "name": "getJournalAddress",
      "outputs": [
        {
          "internalType": "address",
          "name": "",
          "type": "address"
        }
      ],
      "payable": false,
      "stateMutability": "view",
      "type": "function"
    },
    {
      "constant": true,
      "inputs": [
        {
          "internalType": "address",
          "name": "_journalAddress",
          "type": "address"
        }
      ],
      "name": "getJournalPublisher",
      "outputs": [
        {
          "internalType": "string",
          "name": "",
          "type": "string"
        }
      ],
      "payable": false,
      "stateMutability": "view",
      "type": "function"
    },
    {
      "constant": true,
      "inputs": [
        {
          "internalType": "address",
          "name": "_journalAddress",
          "type": "address"
        }
      ],
      "name": "getJournalName",
      "outputs": [
        {
          "internalType": "string",
          "name": "",
          "type": "string"
        }
      ],
      "payable": false,
      "stateMutability": "view",
      "type": "function"
    },
    {
      "constant": true,
      "inputs": [
        {
          "internalType": "address",
          "name": "_journalAddress",
          "type": "address"
        }
      ],
      "name": "getJournalDomain",
      "outputs": [
        {
          "internalType": "string",
          "name": "",
          "type": "string"
        }
      ],
      "payable": false,
      "stateMutability": "view",
      "type": "function"
    },
    {
      "constant": true,
      "inputs": [
        {
          "internalType": "address",
          "name": "_journalAddress",
          "type": "address"
        }
      ],
      "name": "getJournalIF",
      "outputs": [
        {
          "internalType": "string",
          "name": "",
          "type": "string"
        }
      ],
      "payable": false,
      "stateMutability": "view",
      "type": "function"
    },
    {
      "constant": true,
      "inputs": [
        {
          "internalType": "address",
          "name": "_journalAddress",
          "type": "address"
        }
      ],
      "name": "getJournalScopus",
      "outputs": [
        {
          "internalType": "string",
          "name": "",
          "type": "string"
        }
      ],
      "payable": false,
      "stateMutability": "view",
      "type": "function"
    },
    {
      "constant": false,
      "inputs": [
        {
          "internalType": "address",
          "name": "_journalAddress",
          "type": "address"
        },
        {
          "internalType": "address",
          "name": "_authorAddr",
          "type": "address"
        },
        {
          "internalType": "uint256",
          "name": "_paperID",
          "type": "uint256"
        }
      ],
      "name": "addSubmittedPaper",
      "outputs": [],
      "payable": false,
      "stateMutability": "nonpayable",
      "type": "function"
    },
    {
      "constant": true,
      "inputs": [
        {
          "internalType": "address",
          "name": "_journalAddress",
          "type": "address"
        },
        {
          "internalType": "address",
          "name": "_authorAddr",
          "type": "address"
        },
        {
          "internalType": "uint256",
          "name": "_paperID",
          "type": "uint256"
        }
      ],
      "name": "getSubmittedPaperPeerOfInterest",
      "outputs": [
        {
          "internalType": "address",
          "name": "",
          "type": "address"
        }
      ],
      "payable": false,
      "stateMutability": "view",
      "type": "function"
    },
    {
      "constant": true,
      "inputs": [
        {
          "internalType": "address",
          "name": "_journalAddress",
          "type": "address"
        },
        {
          "internalType": "address",
          "name": "_authorAddr",
          "type": "address"
        }
      ],
      "name": "getSubmittedPaperName",
      "outputs": [
        {
          "internalType": "string",
          "name": "",
          "type": "string"
        }
      ],
      "payable": false,
      "stateMutability": "view",
      "type": "function"
    },
    {
      "constant": true,
      "inputs": [
        {
          "internalType": "address",
          "name": "_journalAddress",
          "type": "address"
        },
        {
          "internalType": "address",
          "name": "_authorAddr",
          "type": "address"
        }
      ],
      "name": "getSubmittedPaperInstitution",
      "outputs": [
        {
          "internalType": "string",
          "name": "",
          "type": "string"
        }
      ],
      "payable": false,
      "stateMutability": "view",
      "type": "function"
    },
    {
      "constant": true,
      "inputs": [
        {
          "internalType": "address",
          "name": "_journalAddress",
          "type": "address"
        },
        {
          "internalType": "address",
          "name": "_authorAddr",
          "type": "address"
        }
      ],
      "name": "getSubmittedPaperManuscriptID",
      "outputs": [
        {
          "internalType": "uint256",
          "name": "",
          "type": "uint256"
        }
      ],
      "payable": false,
      "stateMutability": "view",
      "type": "function"
    },
    {
      "constant": true,
      "inputs": [
        {
          "internalType": "address",
          "name": "_journalAddress",
          "type": "address"
        },
        {
          "internalType": "address",
          "name": "_authorAddr",
          "type": "address"
        },
        {
          "internalType": "uint256",
          "name": "_paperID",
          "type": "uint256"
        }
      ],
      "name": "getSubmittedPaperTitle",
      "outputs": [
        {
          "internalType": "string",
          "name": "",
          "type": "string"
        }
      ],
      "payable": false,
      "stateMutability": "view",
      "type": "function"
    },
    {
      "constant": true,
      "inputs": [
        {
          "internalType": "address",
          "name": "_journalAddress",
          "type": "address"
        },
        {
          "internalType": "address",
          "name": "_authorAddr",
          "type": "address"
        },
        {
          "internalType": "uint256",
          "name": "_paperID",
          "type": "uint256"
        }
      ],
      "name": "getSubmittedPaperPrimaryAuthor",
      "outputs": [
        {
          "internalType": "address",
          "name": "",
          "type": "address"
        }
      ],
      "payable": false,
      "stateMutability": "view",
      "type": "function"
    },
    {
      "constant": true,
      "inputs": [
        {
          "internalType": "address",
          "name": "_journalAddress",
          "type": "address"
        },
        {
          "internalType": "address",
          "name": "_authorAddr",
          "type": "address"
        },
        {
          "internalType": "uint256",
          "name": "_paperID",
          "type": "uint256"
        }
      ],
      "name": "getSubmittedManuscriptStatus",
      "outputs": [
        {
          "internalType": "string",
          "name": "",
          "type": "string"
        }
      ],
      "payable": false,
      "stateMutability": "view",
      "type": "function"
    },
    {
      "constant": false,
      "inputs": [
        {
          "internalType": "address",
          "name": "_journalAddress",
          "type": "address"
        },
        {
          "internalType": "address",
          "name": "_authorAddr",
          "type": "address"
        },
        {
          "internalType": "uint256",
          "name": "_manuscriptID",
          "type": "uint256"
        },
        {
          "internalType": "string",
          "name": "_manuscriptStatus",
          "type": "string"
        }
      ],
      "name": "setManuscriptStatus",
      "outputs": [],
      "payable": false,
      "stateMutability": "nonpayable",
      "type": "function"
    },
    {
      "constant": true,
      "inputs": [
        {
          "internalType": "address",
          "name": "_journalAddress",
          "type": "address"
        },
        {
          "internalType": "address",
          "name": "_authorAddr",
          "type": "address"
        },
        {
          "internalType": "uint256",
          "name": "_manuscriptID",
          "type": "uint256"
        }
      ],
      "name": "getManuscriptStatus",
      "outputs": [
        {
          "internalType": "string",
          "name": "",
          "type": "string"
        }
      ],
      "payable": false,
      "stateMutability": "view",
      "type": "function"
    },
    {
      "constant": false,
      "inputs": [
        {
          "internalType": "address",
          "name": "_journalAddress",
          "type": "address"
        },
        {
          "internalType": "address",
          "name": "_editorAddress",
          "type": "address"
        },
        {
          "internalType": "string",
          "name": "_mail",
          "type": "string"
        },
        {
          "internalType": "string",
          "name": "_institution",
          "type": "string"
        },
        {
          "internalType": "string",
          "name": "_about",
          "type": "string"
        }
      ],
      "name": "registerEditor",
      "outputs": [],
      "payable": false,
      "stateMutability": "nonpayable",
      "type": "function"
    },
    {
      "constant": true,
      "inputs": [
        {
          "internalType": "address",
          "name": "_journalAddress",
          "type": "address"
        }
      ],
      "name": "getEditorAddr",
      "outputs": [
        {
          "internalType": "address",
          "name": "",
          "type": "address"
        }
      ],
      "payable": false,
      "stateMutability": "view",
      "type": "function"
    },
    {
      "constant": true,
      "inputs": [
        {
          "internalType": "address",
          "name": "_journalAddress",
          "type": "address"
        }
      ],
      "name": "getEditorMail",
      "outputs": [
        {
          "internalType": "string",
          "name": "",
          "type": "string"
        }
      ],
      "payable": false,
      "stateMutability": "view",
      "type": "function"
    },
    {
      "constant": true,
      "inputs": [
        {
          "internalType": "address",
          "name": "_journalAddress",
          "type": "address"
        }
      ],
      "name": "getEditorInstitution",
      "outputs": [
        {
          "internalType": "string",
          "name": "",
          "type": "string"
        }
      ],
      "payable": false,
      "stateMutability": "view",
      "type": "function"
    },
    {
      "constant": true,
      "inputs": [
        {
          "internalType": "address",
          "name": "_journalAddress",
          "type": "address"
        }
      ],
      "name": "getEditorAbout",
      "outputs": [
        {
          "internalType": "string",
          "name": "",
          "type": "string"
        }
      ],
      "payable": false,
      "stateMutability": "view",
      "type": "function"
    },
    {
      "constant": false,
      "inputs": [
        {
          "internalType": "address",
          "name": "_journalAddress",
          "type": "address"
        },
        {
          "internalType": "address",
          "name": "_reviewerAddress",
          "type": "address"
        },
        {
          "internalType": "string",
          "name": "_name",
          "type": "string"
        }
      ],
      "name": "registerReviewer",
      "outputs": [],
      "payable": false,
      "stateMutability": "nonpayable",
      "type": "function"
    },
    {
      "constant": true,
      "inputs": [
        {
          "internalType": "address",
          "name": "_journalAddress",
          "type": "address"
        },
        {
          "internalType": "address",
          "name": "_reviewerAddress",
          "type": "address"
        }
      ],
      "name": "getReviewerAddress",
      "outputs": [
        {
          "internalType": "address",
          "name": "",
          "type": "address"
        }
      ],
      "payable": false,
      "stateMutability": "view",
      "type": "function"
    },
    {
      "constant": true,
      "inputs": [
        {
          "internalType": "address",
          "name": "_journalAddress",
          "type": "address"
        },
        {
          "internalType": "address",
          "name": "_reviewerAddress",
          "type": "address"
        }
      ],
      "name": "getReviewerName",
      "outputs": [
        {
          "internalType": "string",
          "name": "",
          "type": "string"
        }
      ],
      "payable": false,
      "stateMutability": "view",
      "type": "function"
    },
    {
      "constant": true,
      "inputs": [
        {
          "internalType": "address",
          "name": "_journalAddress",
          "type": "address"
        },
        {
          "internalType": "address",
          "name": "_reviewerAddress",
          "type": "address"
        }
      ],
      "name": "getReviewerReviewQuality",
      "outputs": [
        {
          "internalType": "uint256",
          "name": "",
          "type": "uint256"
        }
      ],
      "payable": false,
      "stateMutability": "view",
      "type": "function"
    },
    {
      "constant": true,
      "inputs": [
        {
          "internalType": "address",
          "name": "_journalAddress",
          "type": "address"
        },
        {
          "internalType": "address",
          "name": "_reviewerAddress",
          "type": "address"
        }
      ],
      "name": "getReviewerTheftAllegation",
      "outputs": [
        {
          "internalType": "uint256",
          "name": "",
          "type": "uint256"
        }
      ],
      "payable": false,
      "stateMutability": "view",
      "type": "function"
    }
  ],
  "bytecode": "0x60806040523480156200001157600080fd5b5060405162003e1038038062003e10833981810160405262000037919081019062000096565b80600260006101000a81548173ffffffffffffffffffffffffffffffffffffffff021916908373ffffffffffffffffffffffffffffffffffffffff1602179055505062000124565b60008151905062000090816200010a565b92915050565b600060208284031215620000a957600080fd5b6000620000b9848285016200007f565b91505092915050565b6000620000cf82620000ea565b9050919050565b6000620000e382620000c2565b9050919050565b600073ffffffffffffffffffffffffffffffffffffffff82169050919050565b6200011581620000d6565b81146200012157600080fd5b50565b613cdc80620001346000396000f3fe608060405234801561001057600080fd5b50600436106101a95760003560e01c8063597f4244116100f9578063b074b0e611610097578063c637bb8411610071578063c637bb84146105ae578063d12d5b9d146105ca578063f54c85b8146105fa578063ff395f501461062a576101a9565b8063b074b0e61461051e578063b7ff84611461054e578063baddc4131461057e576101a9565b8063936eecc2116100d3578063936eecc21461045e5780639e52ef711461048e578063a1ba468b146104be578063ac65534f146104ee576101a9565b8063597f4244146103ce578063640af9b8146103fe578063695df7011461042e576101a9565b806339651612116101665780634285d553116101405780634285d5531461032257806342a82a8f14610352578063503bc0b71461038257806357802be81461039e576101a9565b806339651612146102a65780633fff3c05146102d657806341ccbcba146102f2576101a9565b806302e9d4be146101ae57806308ac8dc9146101ca5780631fbe472d146101fa5780632d15660e1461022a57806335e6a9511461025a5780633825c1f01461028a575b600080fd5b6101c860048036036101c39190810190613604565b61065a565b005b6101e460048036036101df9190810190613386565b61092b565b6040516101f19190613b03565b60405180910390f35b610214600480360361020f9190810190613386565b610a11565b6040516102219190613b03565b60405180910390f35b610244600480360361023f91908101906133d8565b610af4565b6040516102519190613b03565b60405180910390f35b610274600480360361026f9190810190613386565b610c18565b6040516102819190613b03565b60405180910390f35b6102a4600480360361029f9190810190613414565b610cfb565b005b6102c060048036036102bb9190810190613386565b6110dc565b6040516102cd9190613b03565b60405180910390f35b6102f060048036036102eb919081019061347b565b6111bf565b005b61030c60048036036103079190810190613386565b611448565b6040516103199190613864565b60405180910390f35b61033c600480360361033791908101906133d8565b6114b6565b6040516103499190613b03565b60405180910390f35b61036c60048036036103679190810190613386565b6115da565b6040516103799190613b03565b60405180910390f35b61039c60048036036103979190810190613589565b6116c0565b005b6103b860048036036103b3919081019061353a565b6118dc565b6040516103c59190613b03565b60405180910390f35b6103e860048036036103e391908101906133d8565b611a15565b6040516103f59190613b25565b60405180910390f35b610418600480360361041391908101906133d8565b611aa1565b6040516104259190613b25565b60405180910390f35b6104486004803603610443919081019061353a565b611b2d565b6040516104559190613b03565b60405180910390f35b61047860048036036104739190810190613386565b611c66565b6040516104859190613864565b60405180910390f35b6104a860048036036104a3919081019061353a565b611cd1565b6040516104b59190613b03565b60405180910390f35b6104d860048036036104d391908101906133d8565b611e0a565b6040516104e59190613b03565b60405180910390f35b6105086004803603610503919081019061353a565b611f2e565b6040516105159190613864565b60405180910390f35b61053860048036036105339190810190613386565b611fef565b6040516105459190613b03565b60405180910390f35b61056860048036036105639190810190613386565b6120d2565b6040516105759190613b03565b60405180910390f35b61059860048036036105939190810190613386565b6121b8565b6040516105a59190613b03565b60405180910390f35b6105c860048036036105c3919081019061353a565b61229b565b005b6105e460048036036105df919081019061353a565b612fec565b6040516105f19190613864565b60405180910390f35b610614600480360361060f91908101906133d8565b6130ad565b6040516106219190613864565b60405180910390f35b610644600480360361063f91908101906133d8565b613159565b6040516106519190613b25565b60405180910390f35b856000808873ffffffffffffffffffffffffffffffffffffffff1673ffffffffffffffffffffffffffffffffffffffff16815260200190815260200160002060000160006101000a81548173ffffffffffffffffffffffffffffffffffffffff021916908373ffffffffffffffffffffffffffffffffffffffff160217905550846000808873ffffffffffffffffffffffffffffffffffffffff1673ffffffffffffffffffffffffffffffffffffffff168152602001908152602001600020600101908051906020019061072f9291906131e5565b50836000808873ffffffffffffffffffffffffffffffffffffffff1673ffffffffffffffffffffffffffffffffffffffff16815260200190815260200160002060020190805190602001906107859291906131e5565b50826000808873ffffffffffffffffffffffffffffffffffffffff1673ffffffffffffffffffffffffffffffffffffffff16815260200190815260200160002060030190805190602001906107db9291906131e5565b50816000808873ffffffffffffffffffffffffffffffffffffffff1673ffffffffffffffffffffffffffffffffffffffff16815260200190815260200160002060040190805190602001906108319291906131e5565b50806000808873ffffffffffffffffffffffffffffffffffffffff1673ffffffffffffffffffffffffffffffffffffffff16815260200190815260200160002060050190805190602001906108879291906131e5565b5060016000808873ffffffffffffffffffffffffffffffffffffffff1673ffffffffffffffffffffffffffffffffffffffff168152602001908152602001600020600c0160006101000a81548160ff0219169083151502179055507fc0bdd5cea7c8562c1d7e928d925429e7c15662808328078c1ac3e7ce3baed69e86868686868660405161091b9695949392919061398d565b60405180910390a1505050505050565b60606000808373ffffffffffffffffffffffffffffffffffffffff1673ffffffffffffffffffffffffffffffffffffffff1681526020019081526020016000206006016004018054600181600116156101000203166002900480601f016020809104026020016040519081016040528092919081815260200182805460018160011615610100020316600290048015610a055780601f106109da57610100808354040283529160200191610a05565b820191906000526020600020905b8154815290600101906020018083116109e857829003601f168201915b50505050509050919050565b60606000808373ffffffffffffffffffffffffffffffffffffffff1673ffffffffffffffffffffffffffffffffffffffff1681526020019081526020016000206003018054600181600116156101000203166002900480601f016020809104026020016040519081016040528092919081815260200182805460018160011615610100020316600290048015610ae85780601f10610abd57610100808354040283529160200191610ae8565b820191906000526020600020905b815481529060010190602001808311610acb57829003601f168201915b50505050509050919050565b60606000808473ffffffffffffffffffffffffffffffffffffffff1673ffffffffffffffffffffffffffffffffffffffff168152602001908152602001600020600e0160008373ffffffffffffffffffffffffffffffffffffffff1673ffffffffffffffffffffffffffffffffffffffff1681526020019081526020016000206001018054600181600116156101000203166002900480601f016020809104026020016040519081016040528092919081815260200182805460018160011615610100020316600290048015610c0b5780601f10610be057610100808354040283529160200191610c0b565b820191906000526020600020905b815481529060010190602001808311610bee57829003601f168201915b5050505050905092915050565b60606000808373ffffffffffffffffffffffffffffffffffffffff1673ffffffffffffffffffffffffffffffffffffffff1681526020019081526020016000206004018054600181600116156101000203166002900480601f016020809104026020016040519081016040528092919081815260200182805460018160011615610100020316600290048015610cef5780601f10610cc457610100808354040283529160200191610cef565b820191906000526020600020905b815481529060010190602001808311610cd257829003601f168201915b50505050509050919050565b823373ffffffffffffffffffffffffffffffffffffffff166000808373ffffffffffffffffffffffffffffffffffffffff1673ffffffffffffffffffffffffffffffffffffffff16815260200190815260200160002060060160000160009054906101000a900473ffffffffffffffffffffffffffffffffffffffff1673ffffffffffffffffffffffffffffffffffffffff1614610d9857600080fd5b826000808673ffffffffffffffffffffffffffffffffffffffff1673ffffffffffffffffffffffffffffffffffffffff168152602001908152602001600020600e0160008573ffffffffffffffffffffffffffffffffffffffff1673ffffffffffffffffffffffffffffffffffffffff16815260200190815260200160002060000160006101000a81548173ffffffffffffffffffffffffffffffffffffffff021916908373ffffffffffffffffffffffffffffffffffffffff160217905550816000808673ffffffffffffffffffffffffffffffffffffffff1673ffffffffffffffffffffffffffffffffffffffff168152602001908152602001600020600e0160008573ffffffffffffffffffffffffffffffffffffffff1673ffffffffffffffffffffffffffffffffffffffff1681526020019081526020016000206001019080519060200190610eed9291906131e5565b5060016000808673ffffffffffffffffffffffffffffffffffffffff1673ffffffffffffffffffffffffffffffffffffffff168152602001908152602001600020600e0160008573ffffffffffffffffffffffffffffffffffffffff1673ffffffffffffffffffffffffffffffffffffffff16815260200190815260200160002060040160006101000a81548160ff02191690831515021790555060008060008673ffffffffffffffffffffffffffffffffffffffff1673ffffffffffffffffffffffffffffffffffffffff168152602001908152602001600020600e0160008573ffffffffffffffffffffffffffffffffffffffff1673ffffffffffffffffffffffffffffffffffffffff1681526020019081526020016000206002018190555060008060008673ffffffffffffffffffffffffffffffffffffffff1673ffffffffffffffffffffffffffffffffffffffff168152602001908152602001600020600e0160008573ffffffffffffffffffffffffffffffffffffffff1673ffffffffffffffffffffffffffffffffffffffff168152602001908152602001600020600301819055507f145ca25e6719ec1fb0115e7c95e806a0b073c1c44e5185bf32f7f02639a9037f8484846000806040516110ce95949392919061387f565b60405180910390a150505050565b60606000808373ffffffffffffffffffffffffffffffffffffffff1673ffffffffffffffffffffffffffffffffffffffff1681526020019081526020016000206002018054600181600116156101000203166002900480601f0160208091040260200160405190810160405280929190818152602001828054600181600116156101000203166002900480156111b35780601f10611188576101008083540402835291602001916111b3565b820191906000526020600020905b81548152906001019060200180831161119657829003601f168201915b50505050509050919050565b6000803373ffffffffffffffffffffffffffffffffffffffff1673ffffffffffffffffffffffffffffffffffffffff168152602001908152602001600020600c0160009054906101000a900460ff1661121757600080fd5b836000808773ffffffffffffffffffffffffffffffffffffffff1673ffffffffffffffffffffffffffffffffffffffff16815260200190815260200160002060060160000160006101000a81548173ffffffffffffffffffffffffffffffffffffffff021916908373ffffffffffffffffffffffffffffffffffffffff160217905550826000808773ffffffffffffffffffffffffffffffffffffffff1673ffffffffffffffffffffffffffffffffffffffff16815260200190815260200160002060060160040190805190602001906112f29291906131e5565b50816000808773ffffffffffffffffffffffffffffffffffffffff1673ffffffffffffffffffffffffffffffffffffffff168152602001908152602001600020600601600201908051906020019061134b9291906131e5565b50806000808773ffffffffffffffffffffffffffffffffffffffff1673ffffffffffffffffffffffffffffffffffffffff16815260200190815260200160002060060160030190805190602001906113a49291906131e5565b5060016000808773ffffffffffffffffffffffffffffffffffffffff1673ffffffffffffffffffffffffffffffffffffffff16815260200190815260200160002060060160050160006101000a81548160ff0219169083151502179055507fd7a5545323d0a55ec8e6c6c5070ace8a9efeb6ce05b07f8b7bf9c49f8561f82f85858585856040516114399594939291906138d9565b60405180910390a15050505050565b60008060008373ffffffffffffffffffffffffffffffffffffffff1673ffffffffffffffffffffffffffffffffffffffff16815260200190815260200160002060060160000160009054906101000a900473ffffffffffffffffffffffffffffffffffffffff169050919050565b60606000808473ffffffffffffffffffffffffffffffffffffffff1673ffffffffffffffffffffffffffffffffffffffff168152602001908152602001600020600d0160008373ffffffffffffffffffffffffffffffffffffffff1673ffffffffffffffffffffffffffffffffffffffff1681526020019081526020016000206001018054600181600116156101000203166002900480601f0160208091040260200160405190810160405280929190818152602001828054600181600116156101000203166002900480156115cd5780601f106115a2576101008083540402835291602001916115cd565b820191906000526020600020905b8154815290600101906020018083116115b057829003601f168201915b5050505050905092915050565b60606000808373ffffffffffffffffffffffffffffffffffffffff1673ffffffffffffffffffffffffffffffffffffffff1681526020019081526020016000206006016002018054600181600116156101000203166002900480601f0160208091040260200160405190810160405280929190818152602001828054600181600116156101000203166002900480156116b45780601f10611689576101008083540402835291602001916116b4565b820191906000526020600020905b81548152906001019060200180831161169757829003601f168201915b50505050509050919050565b833373ffffffffffffffffffffffffffffffffffffffff166000808373ffffffffffffffffffffffffffffffffffffffff1673ffffffffffffffffffffffffffffffffffffffff16815260200190815260200160002060060160000160009054906101000a900473ffffffffffffffffffffffffffffffffffffffff1673ffffffffffffffffffffffffffffffffffffffff161461175d57600080fd5b816000808773ffffffffffffffffffffffffffffffffffffffff1673ffffffffffffffffffffffffffffffffffffffff168152602001908152602001600020600d0160008673ffffffffffffffffffffffffffffffffffffffff1673ffffffffffffffffffffffffffffffffffffffff168152602001908152602001600020600701600085815260200190815260200160002060050190805190602001906118069291906131e5565b50600260009054906101000a900473ffffffffffffffffffffffffffffffffffffffff1673ffffffffffffffffffffffffffffffffffffffff16633a14a2a18585856040518463ffffffff1660e01b815260040161186693929190613ac5565b600060405180830381600087803b15801561188057600080fd5b505af1158015611894573d6000803e3d6000fd5b505050507f7a253c6ac33d827f1e6cd53c89efe21e176f432c12617a54e8e3763029e12382858585856040516118cd9493929190613941565b60405180910390a15050505050565b60606000808573ffffffffffffffffffffffffffffffffffffffff1673ffffffffffffffffffffffffffffffffffffffff168152602001908152602001600020600d0160008473ffffffffffffffffffffffffffffffffffffffff1673ffffffffffffffffffffffffffffffffffffffff16815260200190815260200160002060070160008381526020019081526020016000206005018054600181600116156101000203166002900480601f016020809104026020016040519081016040528092919081815260200182805460018160011615610100020316600290048015611a075780601f106119dc57610100808354040283529160200191611a07565b820191906000526020600020905b8154815290600101906020018083116119ea57829003601f168201915b505050505090509392505050565b60008060008473ffffffffffffffffffffffffffffffffffffffff1673ffffffffffffffffffffffffffffffffffffffff168152602001908152602001600020600d0160008373ffffffffffffffffffffffffffffffffffffffff1673ffffffffffffffffffffffffffffffffffffffff16815260200190815260200160002060060154905092915050565b60008060008473ffffffffffffffffffffffffffffffffffffffff1673ffffffffffffffffffffffffffffffffffffffff168152602001908152602001600020600e0160008373ffffffffffffffffffffffffffffffffffffffff1673ffffffffffffffffffffffffffffffffffffffff16815260200190815260200160002060030154905092915050565b60606000808573ffffffffffffffffffffffffffffffffffffffff1673ffffffffffffffffffffffffffffffffffffffff168152602001908152602001600020600d0160008473ffffffffffffffffffffffffffffffffffffffff1673ffffffffffffffffffffffffffffffffffffffff16815260200190815260200160002060070160008381526020019081526020016000206005018054600181600116156101000203166002900480601f016020809104026020016040519081016040528092919081815260200182805460018160011615610100020316600290048015611c585780601f10611c2d57610100808354040283529160200191611c58565b820191906000526020600020905b815481529060010190602001808311611c3b57829003601f168201915b505050505090509392505050565b60008060008373ffffffffffffffffffffffffffffffffffffffff1673ffffffffffffffffffffffffffffffffffffffff16815260200190815260200160002060000160009054906101000a900473ffffffffffffffffffffffffffffffffffffffff169050919050565b60606000808573ffffffffffffffffffffffffffffffffffffffff1673ffffffffffffffffffffffffffffffffffffffff168152602001908152602001600020600d0160008473ffffffffffffffffffffffffffffffffffffffff1673ffffffffffffffffffffffffffffffffffffffff16815260200190815260200160002060070160008381526020019081526020016000206000018054600181600116156101000203166002900480601f016020809104026020016040519081016040528092919081815260200182805460018160011615610100020316600290048015611dfc5780601f10611dd157610100808354040283529160200191611dfc565b820191906000526020600020905b815481529060010190602001808311611ddf57829003601f168201915b505050505090509392505050565b60606000808473ffffffffffffffffffffffffffffffffffffffff1673ffffffffffffffffffffffffffffffffffffffff168152602001908152602001600020600d0160008373ffffffffffffffffffffffffffffffffffffffff1673ffffffffffffffffffffffffffffffffffffffff1681526020019081526020016000206000018054600181600116156101000203166002900480601f016020809104026020016040519081016040528092919081815260200182805460018160011615610100020316600290048015611f215780601f10611ef657610100808354040283529160200191611f21565b820191906000526020600020905b815481529060010190602001808311611f0457829003601f168201915b5050505050905092915050565b60008060008573ffffffffffffffffffffffffffffffffffffffff1673ffffffffffffffffffffffffffffffffffffffff168152602001908152602001600020600d0160008473ffffffffffffffffffffffffffffffffffffffff1673ffffffffffffffffffffffffffffffffffffffff168152602001908152602001600020600701600083815260200190815260200160002060040160009054906101000a900473ffffffffffffffffffffffffffffffffffffffff1690509392505050565b60606000808373ffffffffffffffffffffffffffffffffffffffff1673ffffffffffffffffffffffffffffffffffffffff1681526020019081526020016000206001018054600181600116156101000203166002900480601f0160208091040260200160405190810160405280929190818152602001828054600181600116156101000203166002900480156120c65780601f1061209b576101008083540402835291602001916120c6565b820191906000526020600020905b8154815290600101906020018083116120a957829003601f168201915b50505050509050919050565b60606000808373ffffffffffffffffffffffffffffffffffffffff1673ffffffffffffffffffffffffffffffffffffffff1681526020019081526020016000206006016003018054600181600116156101000203166002900480601f0160208091040260200160405190810160405280929190818152602001828054600181600116156101000203166002900480156121ac5780601f10612181576101008083540402835291602001916121ac565b820191906000526020600020905b81548152906001019060200180831161218f57829003601f168201915b50505050509050919050565b60606000808373ffffffffffffffffffffffffffffffffffffffff1673ffffffffffffffffffffffffffffffffffffffff1681526020019081526020016000206005018054600181600116156101000203166002900480601f01602080910402602001604051908101604052809291908181526020018280546001816001161561010002031660029004801561228f5780601f106122645761010080835404028352916020019161228f565b820191906000526020600020905b81548152906001019060200180831161227257829003601f168201915b50505050509050919050565b600260009054906101000a900473ffffffffffffffffffffffffffffffffffffffff1673ffffffffffffffffffffffffffffffffffffffff166364960932836040518263ffffffff1660e01b81526004016122f69190613864565b60006040518083038186803b15801561230e57600080fd5b505afa158015612322573d6000803e3d6000fd5b505050506040513d6000823e3d601f19601f8201168201806040525061234b9190810190613705565b6000808573ffffffffffffffffffffffffffffffffffffffff1673ffffffffffffffffffffffffffffffffffffffff168152602001908152602001600020600d0160008473ffffffffffffffffffffffffffffffffffffffff1673ffffffffffffffffffffffffffffffffffffffff16815260200190815260200160002060000190805190602001906123df9291906131e5565b50600260009054906101000a900473ffffffffffffffffffffffffffffffffffffffff1673ffffffffffffffffffffffffffffffffffffffff1663ff53fb52836040518263ffffffff1660e01b815260040161243b9190613864565b60006040518083038186803b15801561245357600080fd5b505afa158015612467573d6000803e3d6000fd5b505050506040513d6000823e3d601f19601f820116820180604052506124909190810190613705565b6000808573ffffffffffffffffffffffffffffffffffffffff1673ffffffffffffffffffffffffffffffffffffffff168152602001908152602001600020600d0160008473ffffffffffffffffffffffffffffffffffffffff1673ffffffffffffffffffffffffffffffffffffffff16815260200190815260200160002060010190805190602001906125249291906131e5565b50600260009054906101000a900473ffffffffffffffffffffffffffffffffffffffff1673ffffffffffffffffffffffffffffffffffffffff16638211e8f583836040518363ffffffff1660e01b8152600401612582929190613a9c565b60206040518083038186803b15801561259a57600080fd5b505afa1580156125ae573d6000803e3d6000fd5b505050506040513d601f19601f820116820180604052506125d29190810190613746565b6000808573ffffffffffffffffffffffffffffffffffffffff1673ffffffffffffffffffffffffffffffffffffffff168152602001908152602001600020600d0160008473ffffffffffffffffffffffffffffffffffffffff1673ffffffffffffffffffffffffffffffffffffffff16815260200190815260200160002060060181905550600260009054906101000a900473ffffffffffffffffffffffffffffffffffffffff1673ffffffffffffffffffffffffffffffffffffffff16638aaccf4f83836040518363ffffffff1660e01b81526004016126b4929190613a9c565b60006040518083038186803b1580156126cc57600080fd5b505afa1580156126e0573d6000803e3d6000fd5b505050506040513d6000823e3d601f19601f820116820180604052506127099190810190613705565b6000808573ffffffffffffffffffffffffffffffffffffffff1673ffffffffffffffffffffffffffffffffffffffff168152602001908152602001600020600d0160008473ffffffffffffffffffffffffffffffffffffffff1673ffffffffffffffffffffffffffffffffffffffff168152602001908152602001600020600701600083815260200190815260200160002060000190805190602001906127b19291906131e5565b50600260009054906101000a900473ffffffffffffffffffffffffffffffffffffffff1673ffffffffffffffffffffffffffffffffffffffff16638b0d047f83836040518363ffffffff1660e01b815260040161280f929190613a9c565b60206040518083038186803b15801561282757600080fd5b505afa15801561283b573d6000803e3d6000fd5b505050506040513d601f19601f8201168201806040525061285f91908101906133af565b6000808573ffffffffffffffffffffffffffffffffffffffff1673ffffffffffffffffffffffffffffffffffffffff168152602001908152602001600020600d0160008473ffffffffffffffffffffffffffffffffffffffff1673ffffffffffffffffffffffffffffffffffffffff168152602001908152602001600020600701600083815260200190815260200160002060020160006101000a81548173ffffffffffffffffffffffffffffffffffffffff021916908373ffffffffffffffffffffffffffffffffffffffff1602179055506040518060400160405280600e81526020017f57495448205355424d49545445440000000000000000000000000000000000008152506000808573ffffffffffffffffffffffffffffffffffffffff1673ffffffffffffffffffffffffffffffffffffffff168152602001908152602001600020600d0160008473ffffffffffffffffffffffffffffffffffffffff1673ffffffffffffffffffffffffffffffffffffffff16815260200190815260200160002060070160008381526020019081526020016000206005019080519060200190612a109291906131e5565b50600260009054906101000a900473ffffffffffffffffffffffffffffffffffffffff1673ffffffffffffffffffffffffffffffffffffffff1663f67032d783836040518363ffffffff1660e01b8152600401612a6e929190613a9c565b60206040518083038186803b158015612a8657600080fd5b505afa158015612a9a573d6000803e3d6000fd5b505050506040513d601f19601f82011682018060405250612abe91908101906133af565b6000808573ffffffffffffffffffffffffffffffffffffffff1673ffffffffffffffffffffffffffffffffffffffff168152602001908152602001600020600d0160008473ffffffffffffffffffffffffffffffffffffffff1673ffffffffffffffffffffffffffffffffffffffff168152602001908152602001600020600701600083815260200190815260200160002060040160006101000a81548173ffffffffffffffffffffffffffffffffffffffff021916908373ffffffffffffffffffffffffffffffffffffffff1602179055507f8f2e6085ee100e931cc0233687f75d5137008ecebad1a34247ee66e36b3118786000808573ffffffffffffffffffffffffffffffffffffffff1673ffffffffffffffffffffffffffffffffffffffff168152602001908152602001600020600d0160008473ffffffffffffffffffffffffffffffffffffffff1673ffffffffffffffffffffffffffffffffffffffff168152602001908152602001600020600701600083815260200190815260200160002060040160009054906101000a900473ffffffffffffffffffffffffffffffffffffffff166000808673ffffffffffffffffffffffffffffffffffffffff1673ffffffffffffffffffffffffffffffffffffffff168152602001908152602001600020600d0160008573ffffffffffffffffffffffffffffffffffffffff1673ffffffffffffffffffffffffffffffffffffffff1681526020019081526020016000206000016000808773ffffffffffffffffffffffffffffffffffffffff1673ffffffffffffffffffffffffffffffffffffffff168152602001908152602001600020600d0160008673ffffffffffffffffffffffffffffffffffffffff1673ffffffffffffffffffffffffffffffffffffffff1681526020019081526020016000206001016000808873ffffffffffffffffffffffffffffffffffffffff1673ffffffffffffffffffffffffffffffffffffffff168152602001908152602001600020600d0160008773ffffffffffffffffffffffffffffffffffffffff1673ffffffffffffffffffffffffffffffffffffffff168152602001908152602001600020600601546000808973ffffffffffffffffffffffffffffffffffffffff1673ffffffffffffffffffffffffffffffffffffffff168152602001908152602001600020600d0160008873ffffffffffffffffffffffffffffffffffffffff1673ffffffffffffffffffffffffffffffffffffffff16815260200190815260200160002060070160008781526020019081526020016000206000016000808a73ffffffffffffffffffffffffffffffffffffffff1673ffffffffffffffffffffffffffffffffffffffff168152602001908152602001600020600d0160008973ffffffffffffffffffffffffffffffffffffffff1673ffffffffffffffffffffffffffffffffffffffff168152602001908152602001600020600701600088815260200190815260200160002060020160009054906101000a900473ffffffffffffffffffffffffffffffffffffffff166000808b73ffffffffffffffffffffffffffffffffffffffff1673ffffffffffffffffffffffffffffffffffffffff168152602001908152602001600020600d0160008a73ffffffffffffffffffffffffffffffffffffffff1673ffffffffffffffffffffffffffffffffffffffff1681526020019081526020016000206007016000898152602001908152602001600020600501604051612fdf9796959493929190613a11565b60405180910390a1505050565b60008060008573ffffffffffffffffffffffffffffffffffffffff1673ffffffffffffffffffffffffffffffffffffffff168152602001908152602001600020600d0160008473ffffffffffffffffffffffffffffffffffffffff1673ffffffffffffffffffffffffffffffffffffffff168152602001908152602001600020600701600083815260200190815260200160002060020160009054906101000a900473ffffffffffffffffffffffffffffffffffffffff1690509392505050565b60008060008473ffffffffffffffffffffffffffffffffffffffff1673ffffffffffffffffffffffffffffffffffffffff168152602001908152602001600020600e0160008373ffffffffffffffffffffffffffffffffffffffff1673ffffffffffffffffffffffffffffffffffffffff16815260200190815260200160002060000160009054906101000a900473ffffffffffffffffffffffffffffffffffffffff16905092915050565b60008060008473ffffffffffffffffffffffffffffffffffffffff1673ffffffffffffffffffffffffffffffffffffffff168152602001908152602001600020600e0160008373ffffffffffffffffffffffffffffffffffffffff1673ffffffffffffffffffffffffffffffffffffffff16815260200190815260200160002060020154905092915050565b828054600181600116156101000203166002900490600052602060002090601f016020900481019282601f1061322657805160ff1916838001178555613254565b82800160010185558215613254579182015b82811115613253578251825591602001919060010190613238565b5b5090506132619190613265565b5090565b61328791905b8082111561328357600081600090555060010161326b565b5090565b90565b60008135905061329981613c6b565b92915050565b6000815190506132ae81613c6b565b92915050565b600082601f8301126132c557600080fd5b81356132d86132d382613b6d565b613b40565b915080825260208301602083018583830111156132f457600080fd5b6132ff838284613c18565b50505092915050565b600082601f83011261331957600080fd5b815161332c61332782613b6d565b613b40565b9150808252602083016020830185838301111561334857600080fd5b613353838284613c27565b50505092915050565b60008135905061336b81613c82565b92915050565b60008151905061338081613c82565b92915050565b60006020828403121561339857600080fd5b60006133a68482850161328a565b91505092915050565b6000602082840312156133c157600080fd5b60006133cf8482850161329f565b91505092915050565b600080604083850312156133eb57600080fd5b60006133f98582860161328a565b925050602061340a8582860161328a565b9150509250929050565b60008060006060848603121561342957600080fd5b60006134378682870161328a565b93505060206134488682870161328a565b925050604084013567ffffffffffffffff81111561346557600080fd5b613471868287016132b4565b9150509250925092565b600080600080600060a0868803121561349357600080fd5b60006134a18882890161328a565b95505060206134b28882890161328a565b945050604086013567ffffffffffffffff8111156134cf57600080fd5b6134db888289016132b4565b935050606086013567ffffffffffffffff8111156134f857600080fd5b613504888289016132b4565b925050608086013567ffffffffffffffff81111561352157600080fd5b61352d888289016132b4565b9150509295509295909350565b60008060006060848603121561354f57600080fd5b600061355d8682870161328a565b935050602061356e8682870161328a565b925050604061357f8682870161335c565b9150509250925092565b6000806000806080858703121561359f57600080fd5b60006135ad8782880161328a565b94505060206135be8782880161328a565b93505060406135cf8782880161335c565b925050606085013567ffffffffffffffff8111156135ec57600080fd5b6135f8878288016132b4565b91505092959194509250565b60008060008060008060c0878903121561361d57600080fd5b600061362b89828a0161328a565b965050602087013567ffffffffffffffff81111561364857600080fd5b61365489828a016132b4565b955050604087013567ffffffffffffffff81111561367157600080fd5b61367d89828a016132b4565b945050606087013567ffffffffffffffff81111561369a57600080fd5b6136a689828a016132b4565b935050608087013567ffffffffffffffff8111156136c357600080fd5b6136cf89828a016132b4565b92505060a087013567ffffffffffffffff8111156136ec57600080fd5b6136f889828a016132b4565b9150509295509295509295565b60006020828403121561371757600080fd5b600082015167ffffffffffffffff81111561373157600080fd5b61373d84828501613308565b91505092915050565b60006020828403121561375857600080fd5b600061376684828501613371565b91505092915050565b61377881613bca565b82525050565b61378781613c06565b82525050565b600061379882613bae565b6137a28185613bb9565b93506137b2818560208601613c27565b6137bb81613c5a565b840191505092915050565b6000815460018116600081146137e357600181146138095761384d565b607f60028304166137f48187613bb9565b955060ff19831686526020860193505061384d565b600282046138178187613bb9565b955061382285613b99565b60005b8281101561384457815481890152600182019150602081019050613825565b80880195505050505b505092915050565b61385e81613bfc565b82525050565b6000602082019050613879600083018461376f565b92915050565b600060a082019050613894600083018861376f565b6138a1602083018761376f565b81810360408301526138b3818661378d565b90506138c2606083018561377e565b6138cf608083018461377e565b9695505050505050565b600060a0820190506138ee600083018861376f565b6138fb602083018761376f565b818103604083015261390d818661378d565b90508181036060830152613921818561378d565b90508181036080830152613935818461378d565b90509695505050505050565b6000608082019050613956600083018761376f565b613963602083018661376f565b6139706040830185613855565b8181036060830152613982818461378d565b905095945050505050565b600060c0820190506139a2600083018961376f565b81810360208301526139b4818861378d565b905081810360408301526139c8818761378d565b905081810360608301526139dc818661378d565b905081810360808301526139f0818561378d565b905081810360a0830152613a04818461378d565b9050979650505050505050565b600060e082019050613a26600083018a61376f565b8181036020830152613a3881896137c6565b90508181036040830152613a4c81886137c6565b9050613a5b6060830187613855565b8181036080830152613a6d81866137c6565b9050613a7c60a083018561376f565b81810360c0830152613a8e81846137c6565b905098975050505050505050565b6000604082019050613ab1600083018561376f565b613abe6020830184613855565b9392505050565b6000606082019050613ada600083018661376f565b613ae76020830185613855565b8181036040830152613af9818461378d565b9050949350505050565b60006020820190508181036000830152613b1d818461378d565b905092915050565b6000602082019050613b3a6000830184613855565b92915050565b6000604051905081810181811067ffffffffffffffff82111715613b6357600080fd5b8060405250919050565b600067ffffffffffffffff821115613b8457600080fd5b601f19601f8301169050602081019050919050565b60008190508160005260206000209050919050565b600081519050919050565b600082825260208201905092915050565b6000613bd582613bdc565b9050919050565b600073ffffffffffffffffffffffffffffffffffffffff82169050919050565b6000819050919050565b6000613c1182613bfc565b9050919050565b82818337600083830152505050565b60005b83811015613c45578082015181840152602081019050613c2a565b83811115613c54576000848401525b50505050565b6000601f19601f8301169050919050565b613c7481613bca565b8114613c7f57600080fd5b50565b613c8b81613bfc565b8114613c9657600080fd5b5056fea365627a7a72315820876799861242e50e30e4ba6817ddf55e5ba0933fb255f4433df5444add9c343a6c6578706572696d656e74616cf564736f6c634300050c0040",
  "source": "pragma solidity >=0.4.19 <0.6.0;\npragma experimental ABIEncoderV2;\nimport \"./Authorx.sol\";\n\ncontract Journalx\n{\n\tstruct JournalInfo {\n\t\taddress journal;\n\t\tstring publisher;\n\t\tstring name;\n\t\tstring domain;\n\t\tstring IF;\n\t\tstring scopus;\n\t\tEditor editor;\n\t\tbool whitelist;\n\t\tmapping(address => AuthorDetail) authorDetail;\n\t\tmapping(address => Reviewer) reviewer;\n\t}\n\n\tstruct Editor{\n\t\taddress editorAddr;\n\t\tstring name;\n\t\tstring institution;\n\t\tstring about;\n\t\tstring mail;\n\t\tbool whitelist;\n\t}\n\n\tstruct Reviewer {\n\t\taddress reviewerAddr;\n\t\tstring name;\n\t\tuint256 reviewQuality;\n\t\tuint256 theftAllegation;\n\t\tbool whitelist;\n\t}\n\n\tstruct Manuscript {\n\t\tstring title;\n\t\tstring submittingAuthor;\n\t\taddress primaryAuthor;\n\t\taddress[] coAuthors;\n\t\taddress peerOfInterest;\n\t\tstring manuscriptStatus;\n\t}\n\n\tstruct AuthorDetail {\n\t\tstring name;\n\t\tstring institution;\n\t\tstring[] authorDomain;\n\t\tstring[] subscribedDomain;\n\t\tstring[] registeredConference;\n\t\tstring[] registeredJournals;\n\t\tuint256 manuscriptID;\n\t\tmapping(uint256 => Manuscript) manuscript;\n\t}\n\n\tevent JournalRegistration(address _journalAddress, string _publisher, string _name, string _domain, string _IF, string scopus);\n\tevent JournalPaperSubmission(address _journalAddress, string _name, string _institution, uint256 _manuscriptID, string _title, address _primaryAuthor, string _manuscriptStatus);\n\tevent ManuscriptStatusUpdate(address _journalAddress, address _authorAddr, uint256 _manuscriptID, string _manuscriptStatus);\n\tevent EditorRegistered(address _editorAddr, address _peer);\n\tevent EditorRegistration(address _journalAddress, address _editorAddress, string _mail, string _institution, string _about);\n\tevent ReviewerRegistration(address _journalAddress, address _reviewerAddress, string _name, uint256 _reviewQuality, uint256 _theftAllegation);\t\n\n\tmapping (address => JournalInfo) journalInfo;\n\tmapping(uint256 => Manuscript) manuscript;\n\t\n\tAuthorx authorx;\n\tconstructor(Authorx _authorx) public{\n\t\tauthorx = _authorx;\n\t}\n\n\tmodifier onlyJournal() {\n\t\trequire(journalInfo[msg.sender].whitelist);\n\t\t_;\n\t}\n\n\tmodifier onlyEditor(address _journalAddress) {\n\t\trequire(journalInfo[_journalAddress].editor.editorAddr == msg.sender);\n\t\t_;\n\t} \n\n\n\tfunction registerJournal(address _journalAddress, string memory _publisher, string memory _name, string memory _domain, string memory _IF, string memory _scopus) public {\n\t\tjournalInfo[_journalAddress].journal = _journalAddress;\n\t\tjournalInfo[_journalAddress].publisher = _publisher;\n\t\tjournalInfo[_journalAddress].name = _name;\n\t\tjournalInfo[_journalAddress].domain = _domain;\n\t\tjournalInfo[_journalAddress].IF = _IF;\n\t\tjournalInfo[_journalAddress].scopus = _scopus;\n\t\tjournalInfo[_journalAddress].whitelist = true;\n\n\t\temit JournalRegistration(_journalAddress, _publisher, _name, _domain, _IF, _scopus);\n\t}\n\n\tfunction getJournalAddress(address _journalAddress) public view returns(address) {\n\t\treturn journalInfo[_journalAddress].journal;\n\t}\n\n\tfunction getJournalPublisher(address _journalAddress) public view returns(string memory) {\n\t\treturn journalInfo[_journalAddress].publisher;\n\t}\n\n\tfunction getJournalName(address _journalAddress) public view returns(string memory) {\n\t\treturn journalInfo[_journalAddress].name;\n\t}\n\n\tfunction getJournalDomain(address _journalAddress) public view returns(string memory) {\n\t\treturn journalInfo[_journalAddress].domain;\n\t}\n\n\tfunction getJournalIF(address _journalAddress) public view returns(string memory) {\n\t\treturn journalInfo[_journalAddress].IF;\n\t}\n\n\tfunction getJournalScopus(address _journalAddress) public view returns(string memory) {\n\t\treturn journalInfo[_journalAddress].scopus;\n\t}\n\n\tfunction addSubmittedPaper(address _journalAddress, address _authorAddr, uint256 _paperID) public {\n\t\tjournalInfo[_journalAddress].authorDetail[_authorAddr].name = authorx.getAuthorName(_authorAddr);\n\t\tjournalInfo[_journalAddress].authorDetail[_authorAddr].institution = authorx.getAuthorInstitution(_authorAddr);\n\t\tjournalInfo[_journalAddress].authorDetail[_authorAddr].manuscriptID = authorx.getManuscriptID(_authorAddr, _paperID);\n\t\tjournalInfo[_journalAddress].authorDetail[_authorAddr].manuscript[_paperID].title = authorx.getManuscriptTitle(_authorAddr, _paperID);\n\t\tjournalInfo[_journalAddress].authorDetail[_authorAddr].manuscript[_paperID].primaryAuthor = authorx.getManuscriptPrimaryAuthor(_authorAddr, _paperID);\n\t\tjournalInfo[_journalAddress].authorDetail[_authorAddr].manuscript[_paperID].manuscriptStatus = \"WITH SUBMITTED\";\n\t\tjournalInfo[_journalAddress].authorDetail[_authorAddr].manuscript[_paperID].peerOfInterest = authorx.getManuscriptPeerOfInterest(_authorAddr, _paperID);\n\n\t\temit JournalPaperSubmission(journalInfo[_journalAddress].authorDetail[_authorAddr].manuscript[_paperID].peerOfInterest, \n\t\t\tjournalInfo[_journalAddress].authorDetail[_authorAddr].name, \n\t\t\tjournalInfo[_journalAddress].authorDetail[_authorAddr].institution, \n\t\t\tjournalInfo[_journalAddress].authorDetail[_authorAddr].manuscriptID, \n\t\t\tjournalInfo[_journalAddress].authorDetail[_authorAddr].manuscript[_paperID].title, \n\t\t\tjournalInfo[_journalAddress].authorDetail[_authorAddr].manuscript[_paperID].primaryAuthor, \n\t\t\tjournalInfo[_journalAddress].authorDetail[_authorAddr].manuscript[_paperID].manuscriptStatus);\n\t}\n\n\tfunction getSubmittedPaperPeerOfInterest(address _journalAddress, address _authorAddr, uint256 _paperID) public view returns(address) {\n\t\treturn (journalInfo[_journalAddress].authorDetail[_authorAddr].manuscript[_paperID].peerOfInterest); \n\t}\n\n\tfunction getSubmittedPaperName(address _journalAddress, address _authorAddr) public view returns(string memory) {\n\t\treturn (journalInfo[_journalAddress].authorDetail[_authorAddr].name); \n\t}\n\n\tfunction getSubmittedPaperInstitution(address _journalAddress, address _authorAddr) public view returns(string memory) {\n\t\treturn (journalInfo[_journalAddress].authorDetail[_authorAddr].institution); \n\t}\n\n\tfunction getSubmittedPaperManuscriptID(address _journalAddress, address _authorAddr) public view returns(uint256) {\n\t\treturn (journalInfo[_journalAddress].authorDetail[_authorAddr].manuscriptID); \n\t}\n\n\tfunction getSubmittedPaperTitle(address _journalAddress, address _authorAddr, uint256 _paperID) public view returns(string memory) {\n\t\treturn (journalInfo[_journalAddress].authorDetail[_authorAddr].manuscript[_paperID].title); \n\t}\n\n\tfunction getSubmittedPaperPrimaryAuthor(address _journalAddress, address _authorAddr, uint256 _paperID) public view returns(address) {\n\t\treturn (journalInfo[_journalAddress].authorDetail[_authorAddr].manuscript[_paperID].primaryAuthor); \n\t}\n\n\tfunction getSubmittedManuscriptStatus(address _journalAddress, address _authorAddr, uint256 _paperID) public view returns(string memory) {\n\t\treturn (journalInfo[_journalAddress].authorDetail[_authorAddr].manuscript[_paperID].manuscriptStatus); \n\t}\n\n\tfunction setManuscriptStatus(address _journalAddress, address _authorAddr, uint256 _manuscriptID, string memory _manuscriptStatus) public onlyEditor(_journalAddress){\n\t\tjournalInfo[_journalAddress].authorDetail[_authorAddr].manuscript[_manuscriptID].manuscriptStatus = _manuscriptStatus;\n\t\tauthorx.setManuscriptStatus(_authorAddr, _manuscriptID, _manuscriptStatus);\n\t\temit ManuscriptStatusUpdate(_journalAddress, _authorAddr, _manuscriptID, _manuscriptStatus);\n\t}\n\n\tfunction getManuscriptStatus(address _journalAddress, address _authorAddr, uint256 _manuscriptID) public view returns(string memory) {\n\t\treturn(journalInfo[_journalAddress].authorDetail[_authorAddr].manuscript[_manuscriptID].manuscriptStatus);\n\t}\n\n\tfunction registerEditor(address _journalAddress, address _editorAddress, string memory _mail, string memory _institution, string memory _about) public onlyJournal() {\n\t\tjournalInfo[_journalAddress].editor.editorAddr = _editorAddress;\n\t\tjournalInfo[_journalAddress].editor.mail = _mail;\n\t\tjournalInfo[_journalAddress].editor.institution = _institution;\n\t\tjournalInfo[_journalAddress].editor.about = _about;\n\t\tjournalInfo[_journalAddress].editor.whitelist = true;\n\n\t\temit EditorRegistration(_journalAddress, _editorAddress, _mail, _institution, _about);\n\t}\n\n\tfunction getEditorAddr(address _journalAddress) public view returns(address) {\n\t\treturn (journalInfo[_journalAddress].editor.editorAddr);\n\t}\n\n\tfunction getEditorMail(address _journalAddress) public view returns(string memory) {\n\t\treturn (journalInfo[_journalAddress].editor.mail);\n\t}\t\n\n\tfunction getEditorInstitution(address _journalAddress) public view returns(string memory) {\n\t\treturn (journalInfo[_journalAddress].editor.institution);\n\t}\n\n\tfunction getEditorAbout(address _journalAddress) public view returns(string memory) {\n\t\treturn (journalInfo[_journalAddress].editor.about);\n\t}\n\n\tfunction registerReviewer(address _journalAddress, address _reviewerAddress, string memory _name) public onlyEditor(_journalAddress) {\n\t\tjournalInfo[_journalAddress].reviewer[_reviewerAddress].reviewerAddr = _reviewerAddress;\n\t\tjournalInfo[_journalAddress].reviewer[_reviewerAddress].name = _name;\n\t\tjournalInfo[_journalAddress].reviewer[_reviewerAddress].whitelist = true;\n\t\tjournalInfo[_journalAddress].reviewer[_reviewerAddress].reviewQuality = 0;\n\t\tjournalInfo[_journalAddress].reviewer[_reviewerAddress].theftAllegation = 0;\n\n\t\temit ReviewerRegistration(_journalAddress, _reviewerAddress, _name, 0, 0);\n\t}\n\n\tfunction getReviewerAddress(address _journalAddress, address _reviewerAddress) public view returns(address) {\n\t\treturn (journalInfo[_journalAddress].reviewer[_reviewerAddress].reviewerAddr);\n\t}\n\n\tfunction getReviewerName(address _journalAddress, address _reviewerAddress) public view returns(string memory) {\n\t\treturn (journalInfo[_journalAddress].reviewer[_reviewerAddress].name);\n\t}\n\n\tfunction getReviewerReviewQuality(address _journalAddress, address _reviewerAddress) public view returns(uint256) {\n\t\treturn (journalInfo[_journalAddress].reviewer[_reviewerAddress].reviewQuality);\n\t}\n\n\tfunction getReviewerTheftAllegation(address _journalAddress, address _reviewerAddress) public view returns(uint256) {\n\t\treturn (journalInfo[_journalAddress].reviewer[_reviewerAddress].theftAllegation);\n\t}\n\n}",
  "sourcePath": "/root/Soft/contracts/Journalx.sol",
  "compiler": {
    "name": "solc",
    "version": "0.5.12+commit.7709ece9.Emscripten.clang"
  },
  "schemaVersion": "3.0.20",
  "updatedAt": "2020-01-12T20:32:08.390Z",
  "networkType": "ethereum",
  "devdoc": {
    "methods": {}
  },
  "userdoc": {
    "methods": {}
  }
}