{
  "contractName": "Manuscriptx",
  "abi": [
    {
      "anonymous": false,
      "inputs": [
        {
          "indexed": false,
          "internalType": "address",
          "name": "_editorAddr",
          "type": "address"
        },
        {
          "indexed": false,
          "internalType": "address",
          "name": "_peer",
          "type": "address"
        }
      ],
      "name": "EditorRegistered",
      "type": "event"
    },
    {
      "anonymous": false,
      "inputs": [
        {
          "indexed": false,
          "internalType": "address",
          "name": "_authorAddr",
          "type": "address"
        },
        {
          "indexed": false,
          "internalType": "uint256",
          "name": "_manuscriptID",
          "type": "uint256"
        },
        {
          "indexed": false,
          "internalType": "string",
          "name": "manuscriptStatus",
          "type": "string"
        }
      ],
      "name": "ManuscriptStatusUpdated",
      "type": "event"
    },
    {
      "constant": false,
      "inputs": [
        {
          "internalType": "address",
          "name": "_editorAddr",
          "type": "address"
        },
        {
          "internalType": "address",
          "name": "_peer",
          "type": "address"
        }
      ],
      "name": "registerEditor",
      "outputs": [],
      "payable": false,
      "stateMutability": "nonpayable",
      "type": "function"
    },
    {
      "constant": false,
      "inputs": [
        {
          "internalType": "address",
          "name": "_authorAddr",
          "type": "address"
        },
        {
          "internalType": "uint256",
          "name": "_manuscriptID",
          "type": "uint256"
        },
        {
          "internalType": "string",
          "name": "_manuscriptStatus",
          "type": "string"
        }
      ],
      "name": "setManuscriptStatus",
      "outputs": [],
      "payable": false,
      "stateMutability": "nonpayable",
      "type": "function"
    },
    {
      "constant": true,
      "inputs": [
        {
          "internalType": "address",
          "name": "_authorAddr",
          "type": "address"
        },
        {
          "internalType": "uint256",
          "name": "_manuscriptID",
          "type": "uint256"
        }
      ],
      "name": "getManuscriptStatus",
      "outputs": [
        {
          "internalType": "string",
          "name": "",
          "type": "string"
        }
      ],
      "payable": false,
      "stateMutability": "view",
      "type": "function"
    }
  ],
  "bytecode": "0x608060405234801561001057600080fd5b50610817806100206000396000f3fe608060405234801561001057600080fd5b50600436106100405760003560e01c806220367a146100455780633a14a2a114610061578063e52a13501461007d575b600080fd5b61005f600480360361005a91908101906104e3565b6100ad565b005b61007b6004803603610076919081019061055b565b6101c4565b005b6100976004803603610092919081019061051f565b6102c7565b6040516100a49190610680565b60405180910390f35b816000808473ffffffffffffffffffffffffffffffffffffffff1673ffffffffffffffffffffffffffffffffffffffff16815260200190815260200160002060000160006101000a81548173ffffffffffffffffffffffffffffffffffffffff021916908373ffffffffffffffffffffffffffffffffffffffff16021790555060016000808473ffffffffffffffffffffffffffffffffffffffff1673ffffffffffffffffffffffffffffffffffffffff16815260200190815260200160002060000160146101000a81548160ff0219169083151502179055507f0a4b5ab45d5cf0ee9ee6805d9b779995b1b37b7af71dbe23009ecc75974e6f9382826040516101b8929190610619565b60405180910390a15050565b6000803373ffffffffffffffffffffffffffffffffffffffff1673ffffffffffffffffffffffffffffffffffffffff16815260200190815260200160002060000160149054906101000a900460ff1661021c57600080fd5b80600160008573ffffffffffffffffffffffffffffffffffffffff1673ffffffffffffffffffffffffffffffffffffffff168152602001908152602001600020600001600084815260200190815260200160002060000190805190602001906102869291906103c0565b507fbd3a793b66ebe80f9ef66c1008be32e6971c84565b127bca927c77cc47289c038383836040516102ba93929190610642565b60405180910390a1505050565b6060600160008473ffffffffffffffffffffffffffffffffffffffff1673ffffffffffffffffffffffffffffffffffffffff16815260200190815260200160002060000160008381526020019081526020016000206000018054600181600116156101000203166002900480601f0160208091040260200160405190810160405280929190818152602001828054600181600116156101000203166002900480156103b35780601f10610388576101008083540402835291602001916103b3565b820191906000526020600020905b81548152906001019060200180831161039657829003601f168201915b5050505050905092915050565b828054600181600116156101000203166002900490600052602060002090601f016020900481019282601f1061040157805160ff191683800117855561042f565b8280016001018555821561042f579182015b8281111561042e578251825591602001919060010190610413565b5b50905061043c9190610440565b5090565b61046291905b8082111561045e576000816000905550600101610446565b5090565b90565b600081359050610474816107a6565b92915050565b600082601f83011261048b57600080fd5b813561049e610499826106cf565b6106a2565b915080825260208301602083018583830111156104ba57600080fd5b6104c5838284610753565b50505092915050565b6000813590506104dd816107bd565b92915050565b600080604083850312156104f657600080fd5b600061050485828601610465565b925050602061051585828601610465565b9150509250929050565b6000806040838503121561053257600080fd5b600061054085828601610465565b9250506020610551858286016104ce565b9150509250929050565b60008060006060848603121561057057600080fd5b600061057e86828701610465565b935050602061058f868287016104ce565b925050604084013567ffffffffffffffff8111156105ac57600080fd5b6105b88682870161047a565b9150509250925092565b6105cb81610717565b82525050565b60006105dc826106fb565b6105e68185610706565b93506105f6818560208601610762565b6105ff81610795565b840191505092915050565b61061381610749565b82525050565b600060408201905061062e60008301856105c2565b61063b60208301846105c2565b9392505050565b600060608201905061065760008301866105c2565b610664602083018561060a565b818103604083015261067681846105d1565b9050949350505050565b6000602082019050818103600083015261069a81846105d1565b905092915050565b6000604051905081810181811067ffffffffffffffff821117156106c557600080fd5b8060405250919050565b600067ffffffffffffffff8211156106e657600080fd5b601f19601f8301169050602081019050919050565b600081519050919050565b600082825260208201905092915050565b600061072282610729565b9050919050565b600073ffffffffffffffffffffffffffffffffffffffff82169050919050565b6000819050919050565b82818337600083830152505050565b60005b83811015610780578082015181840152602081019050610765565b8381111561078f576000848401525b50505050565b6000601f19601f8301169050919050565b6107af81610717565b81146107ba57600080fd5b50565b6107c681610749565b81146107d157600080fd5b5056fea365627a7a72315820faadc3ee337f535f25ea0f692a43e574cfb53528153068f94e05b83cfe176cc66c6578706572696d656e74616cf564736f6c634300050c0040",
  "source": "pragma solidity >=0.4.19 <0.6.0;\npragma experimental ABIEncoderV2;\ncontract Manuscriptx {\n\tstruct PseudoPeer {\n\t\taddress editor;\n\t\tbool whitelist;\n\t}\n\n\tstruct PseudoAuthor {\n\t\tmapping(uint256 => PseudoManuscript) status;\t\n\t}\n\n\tstruct PseudoManuscript {\n\t\tstring manuscriptStatus;\n\t}\n\n\tmapping (address => PseudoPeer) editor;\n\tmapping (address => PseudoAuthor) author;\n\n\tevent EditorRegistered(address _editorAddr, address _peer);\n\tevent ManuscriptStatusUpdated(address _authorAddr, uint _manuscriptID, string manuscriptStatus);\n\n\tmodifier onlyEditor() {\n\t\trequire(editor[msg.sender].whitelist);\n\t\t_;\n\t} \n\n\tfunction registerEditor(address _editorAddr, address _peer) public {\n\t\teditor[_editorAddr].editor = _editorAddr;\n\t\teditor[_editorAddr].whitelist = true;\n\t\temit EditorRegistered(_editorAddr, _peer);\n\t}\n\n\n\tfunction setManuscriptStatus(address _authorAddr, uint _manuscriptID, string memory _manuscriptStatus) public onlyEditor() {\n\t\tauthor[_authorAddr].status[_manuscriptID].manuscriptStatus = _manuscriptStatus;\n\t\temit ManuscriptStatusUpdated(_authorAddr, _manuscriptID, _manuscriptStatus);\n\n\t}\n\n\tfunction getManuscriptStatus(address _authorAddr, uint256 _manuscriptID) public view returns(string memory) {\n\t\treturn (author[_authorAddr].status[_manuscriptID].manuscriptStatus);\n\t}\n}",
  "sourcePath": "/root/Soft/contracts/Manuscriptx.sol",
  "compiler": {
    "name": "solc",
    "version": "0.5.12+commit.7709ece9.Emscripten.clang"
  },
  "schemaVersion": "3.0.20",
  "updatedAt": "2020-01-05T14:40:22.364Z",
  "devdoc": {
    "methods": {}
  },
  "userdoc": {
    "methods": {}
  }
}